:100000000C9491010C94D8010C94D8010C94D80153
:100010000C94D8010C94D8010C94D8010C94D801FC
:100020000C94D8010C94D8010C94211C0C94F31C52
:100030000C947F140C94D8010C94D8010C94D80122
:100040000C94D8010C94D8010C94D8010C94D801CC
:100050000C94D8010C94CC140C94D8010C94D801B5
:100060000C94D8010C94D8010C94D8010C94D801AC
:100070000C94D8010C94D8010C94D8010C94D8019C
:100080000C94D8010C94D8010C94D8010C94D8018C
:100090000C94D8010C94D8010C94D8010C94D8017C
:1000A0000C94D8010C94D8010C94D801FA0AFA0ADD
:1000B0002C0B2C0B790B970BAB0CAB0CA20B3B0C4A
:1000C0004C0C4C0C4B0D4B0D5D0D5D0D540D5D0D31
:1000D0005D0D5D0D4B0D4B0D590D5D0D5D0D590DFC
:1000E000601D871D7F1E871D7F1ED31DF61D7F1E71
:1000F0004D1E5C1E68747470733A2F2F716D6B2ED9
:10010000666D2F0A00514D4B20697320746865207D
:1001100062657374207468696E6720657665722104
:10012000002400250026002100220023001E001FBD
:100130000020000041630058002B0052002A0050AC
:100140000051004F00570056005500000054006752
:100150000000000000000000002A2B280000000022
:100160000000000000000000000000002900000066
:10017000002C1E3420212224342627252E362D370C
:1001800038271E1F202122232425263333362E37DD
:10019000381F0405060708090A0B0C0D0E0F101175
:1001A00012131415161718191A1B1C1D2F31302382
:1001B0002D350405060708090A0B0C0D0E0F10114A
:1001C00012131415161718191A1B1C1D2F31303550
:1001D0004C000000000000000000000000000000D3
:1001E00000000000007E0F00D4FFFFFFC7000000EA
:1001F00078100370006F006C00790070006100647B
:100200000000000A036D002E006B0069000000046E
:1002100003090409023B00020100A0FA09040000DE
:10022000010301010009211101000122400007051D
:10023000810308000A0904010001030000000921EC
:10024000110100012281000705820320000A12012A
:10025000100100000008EDFE000001000102000195
:1002600005010902A10185020901A1000509190181
:100270002905150025019505750181029501750374
:1002800081010501093009311581257F9502750825
:10029000810609381581257F950175088106050CB1
:1002A0000A38021581257F950175088106C0C005B1
:1002B000010980A101850319012AB700150126B79C
:1002C00000950175108100C0050C0901A10185048C
:1002D00019012AA002150126A002950175108100BE
:1002E000C005010906A101050719E029E715002548
:1002F00001950875018102950175088101050719AD
:100300000029FF150026FF009506750881000508E5
:100310001901290595057501910295017503910152
:10032000C00011241FBECFEFDAE0DEBFCDBF04B6A0
:1003300003FE27C080911C0290911D02A0911E0215
:10034000B0911F028730904BA740B04BD1F4109270
:100350001C0210921D0210921E0210921F0214BE67
:1003600084B7877F84BF0FB6F894A895809160000A
:10037000886180936000109260000FBEE0E0F8E3B7
:10038000099511E0A0E0B1E0EAE4FEE302C00590C7
:100390000D92A438B107D9F722E0A4E8B1E001C07A
:1003A0001D92AC31B207E1F70E9461190C94231F32
:1003B0000C94000089322DE5920721F08A329D4588
:1003C00041F00FC0FB018281882359F085E091E064
:1003D00006C0FB018281882321F084EF90E00E9417
:1003E000FA0281E0089581E008950C94DA010895FD
:1003F0000C94F7011F93CF93DF9300D000D01F928E
:10040000CDB7DEB749835A836B83309194018981DC
:100410009A81311114C0662359F0222349F00E94B9
:100420000712182F682F89819A810E94B01103C08A
:100430000E94DB11182F69817A81812F04C00E94EC
:10044000071269817A810F900F900F900F900F9093
:10045000DF91CF911F910C946603FC01262F408100
:1004600051816281738184810C94FA01CF93DF936F
:10047000EC0160E00E942D02BE01DF91CF910C944F
:10048000F801FF920F931F93CF93DF93E82FF0E0D3
:10049000EF5AFE4FF490C82FC695C695C695D0E08A
:1004A000FE01EF51FE4F0491877010E0082E02C04C
:1004B000159507950A94E2F701701127FE01EF5296
:1004C000FE4FC491D0E002C0D595C7958A95E2F75A
:1004D000C170DD270115110519F081EE0E948D090B
:1004E000209719F086EE0E948D098F2D0E949F0A99
:1004F000CD2B19F086EE0E94370A012B41F081EED8
:10050000DF91CF911F910F91FF900C94370ADF91EB
:10051000CF911F910F91FF900895EF92FF920F934B
:100520001F93CF93DF938C01F62E8AE0E82EF8011B
:100530008491882309F457C0813009F042C0E80152
:100540002196FE018491813031F42196FE0184913F
:100550000E949F0A39C0823039F4E8012296FE01D8
:1005600084910E948D0930C0833039F4E8012296CD
:10057000FE0184910E94370A27C0843029F5E801E2
:100580002296FE01249180E090E030E02053310972
:100590002A30310560F4E89EA001E99E500D112437
:1005A000C901840F951F2196FE012491EECF00977B
:1005B00059F0EFE9FFE03197F1F700C00000019733
:1005C000F6CF0E944102E8018E010F5F1F4F8F2D71
:1005D000882309F4ACCFEFE9FFE03197F1F700C0D1
:1005E00000008150F5CFDF91CF911F910F91FF90C7
:1005F000EF90089560E00C948D020E9418150E94FF
:100600003213811102C00E94D9130C9467050C9417
:10061000630508950E94390D0E9409032FEF84E3BA
:100620009CE0215080409040E1F700C000000C9415
:10063000F2140F931F93CF93DF93EC0161E00E94BC
:100640002D028C01BE010E94F501882349F1BE01F3
:10065000C8010E949A06882319F1BE01C8010E94B0
:10066000EC068823E9F0BE01C8010E941708882320
:10067000B9F08A81882369F001158CE5180731F0FB
:100680000F3D1C4531F40E94D9130AC00E940A0391
:1006900007C0CE01DF91CF911F910F910C94F30110
:1006A00080E0DF91CF911F910F91089508950C94F0
:1006B000560381E008950C945903CF93C82F0E94EC
:1006C00057038C2F0E945B03CF910895272F30E0B2
:1006D000280F311D8CE0829FF001839FF00D1124C3
:1006E000E60FF11DEE0FFF1FEF5DFE4F8591949118
:1006F0000895CF93DF930E9466030E947B04EC0170
:10070000811521E5920708F043C0811540E5940763
:1007100008F08AC0883E910520F5803E910508F0DA
:10072000E6C0883A910570F4853A910508F074C0E6
:100730008130910509F4DBC008F4D7C0049708F0B4
:10074000D6C0D3C08F3B910508F0CFC0C85AD0E0C7
:10075000CC0FDD1FCB5EDE4F0990D881C02DD46455
:10076000C6C0C11580E2D80758F4C11521E0D207F0
:1007700008F0BDC0C03FD10508F4B7C0D065B7C010
:10078000C11540E4D40708F4B0C0DF70D06AAFC030
:10079000C11585E5D807A0F4C11524E5D20708F0F6
:1007A0008AC0C11543E5D40708F06FC0C11582E5C2
:1007B000D80708F054C0DC2FCC27C16FD06A97C08F
:1007C000C11529E5D207A0F4C11548E5D40708F002
:1007D00077C0C11586E5D80708F087C08C2F0E9426
:1007E0000F058F71C82FD0E0DC2FCC27D0627FC0DF
:1007F000C1152AE5D20708F468C0CE0190568115CC
:10080000904208F072C08D2F8F710E940F05DD2776
:10081000D0628F71D82B6BC0C55AD0E0CD5BDE4F54
:10082000C881D0E0D06463C074E0969587957A95CE
:10083000E1F783709C2F937021E030E002C0220F1B
:10084000331F9A95E2F73C68382BCF70C695C69552
:1008500080E2C89FE0011124C22BD32B48C0CE01F7
:100860008370992721E030E002C0220F331F8A9560
:10087000E2F78C2F8695869540E2849FC001112473
:10088000E901C82BD92BDC6832C0CE0183709927CF
:1008900021E030E002C0220F331F8A95E2F78C2F4F
:1008A0008695869540E2849FC0011124E901C82BFA
:1008B000D92BDA681CC0DC2FCC27C46FD06A17C0D4
:1008C000DC2FCC27C06FD06A12C08C2F8F700E9493
:1008D0000F0594E0D695C7959A95E1F7CF70D0E0D3
:1008E000DC2FCC27D069C82B02C0C0E0D0E0CE01FD
:1008F000DF91CF9108958238910569F1B0F4813389
:10090000910509F46DC048F48932910509F463C07A
:100910008A32910509F469C008958533910509F477
:1009200055C089339105B9F00895833E910569F169
:1009300038F4803E9105B1F0823E910509F10895A9
:10094000863E9105A9F1873E9105B9F1843E910556
:1009500009F064C023C020910D0220FD4FC021FD8D
:100960004DC0089580910D0280FD44C080910E021B
:1009700080FF44C080910D0284FD42C083EE4DC0D3
:1009800080910D0282FF38C0F5CF80910D0282FD6B
:1009900033C080910E0280FD31C0ECCF80910E02F9
:1009A00081FF32C080910D0284FD2AC087EE35C0E0
:1009B00080910D0283FF26C0F5CF80910D0283FD4B
:1009C00021C080910E0281FD1FC0ECCF80910D02ED
:1009D00085FD1CC01DC080910D0285FD19C016C08B
:1009E00080910D0286FD16C017C080910D0286FD14
:1009F00013C010C089E311C082EE0FC080EE0DC09D
:100A000080E00BC086EE09C084EE07C089E205C015
:100A100085E303C08AE201C081E390E008959091EC
:100A20000D0292FF0DC0282F2871283019F4877FFE
:100A3000846006C0282F2471243011F48B7F8860D5
:100A400093FF0DC0282F2871283119F4877E846107
:100A500006C0282F2471243111F48B7E88612091E7
:100A60000E0220FF0DC0382F3871383019F4877FFF
:100A7000816006C0382F3171313011F48E7F88606B
:100A800021FF0DC0282F2871283119F4877E81613C
:100A900006C0282F2171213111F48E7E886194FDCA
:100AA000877E0895E82FF0E0EE0FFF1FE95FFD4F0E
:100AB000808191810895089580EA8A95F1F70895DB
:100AC00008950C9460050C9461050C9460050C94D9
:100AD0006505F894E82FE295EF70F0E031A1282F3A
:100AE0002F7081E090E001C0880F2A95EAF7982FD7
:100AF0009095932391A392A1892B82A37894089532
:100B0000CF93DF9387E90E946905C6E4D1E089911C
:100B10000E94690581E0C235D807C9F71092060224
:100B200010920502109208021092070281E00E94C2
:100B3000EC05DF91CF910C94FD02CF93DF93F894F5
:100B4000579A5F9878940E945C05A6E4B1E020E093
:100B500030E0C0E0D0E061E070E04D91E42FE2953C
:100B6000EF70F0E080A190E04F7002C095958795FE
:100B70004A95E2F780FD08C0CB01022E02C0880F23
:100B8000991F0A94E2F702C080E090E0C82BD92BAD
:100B90002F5F3F4F2C30310501F787E90E9469052F
:100BA0008091050290910602C817D90731F0D093C1
:100BB0000602C0930502C1E001C0C0E02C2F41E055
:100BC00067E072E085E092E00E94ED050E94070375
:100BD0008C2FDF91CF9108950895FF920F931F936B
:100BE000CF93DF93F82E092F162FD72FC42F222350
:100BF00049F081E0809386010E94B11490938501B1
:100C000080938401809186018823D9F080918401AA
:100C1000909185010E94BD14069798F0EF2DF02F5A
:100C2000A12FBD2F80E090E04C2F50E08417950756
:100C300034F4219131912D933D930196F7CF109289
:100C40008601DF91CF911F910F91FF9008950F932F
:100C50001F93CF93DF93C42FD22FFC01828188236F
:100C6000C9F0409389010E94B11490938801809348
:100C7000870180E28C0F883008F057C0C77081E090
:100C800001C0880FCA95EAF7DF91CF911F910F91AC
:100C90000C94B20A80918901481330C08091870179
:100CA000909188010E94BD14883C910538F510E2AE
:100CB0001D0FCD17B9F080E28C0F883040F4C7705B
:100CC00081E001C0880FCA95EAF70E94B90A18307E
:100CD00028F581E09D2F977001C0880F9A95EAF75B
:100CE0000E94B20A802F0E949F0A1830F0F4D77039
:100CF00081E001C0880FDA95EAF70AC080E28C0F24
:100D0000883098F4C77081E001C0880FCA95EAF76F
:100D1000DF91CF911F910F910C94B90A802FDF9131
:100D2000CF911F910F910C949F0ADF91CF911F914A
:100D30000F9108950F939C01CB01243F4CE534079C
:100D400031F188F4293DFCE53F07D9F02A3D4CE517
:100D5000340779F1283D3C45A9F506E221EE41EE44
:100D600068ED7CE52BC0263FFCE53F07E1F0A8F0ED
:100D7000273F3C4539F507E225EE46EE67EF7CE577
:100D80001DC007E225EE45EE69ED7CE517C006E2E1
:100D900021EE40EE64EF7CE511C007E225EE44EE63
:100DA00065EF7CE50BC006E221EE42EE66EF7CE5E6
:100DB00005C008E221E045EE6AED7CE50E942706C9
:100DC00080E008C0FC018281882319F0109289011B
:100DD00001C081E00F910895CF93DF93EC01FB01F7
:100DE0008281882309F41FC1C230FCE5DF0708F4C3
:100DF0001BC1C6319CE5D90738F09E012B5F3C45ED
:100E00002930310508F010C10E94451390930E025D
:100E100080930D02C031ECE5DE0709F4C3C008F091
:100E200041C0C8308CE5D80709F49AC0F0F4C4304A
:100E3000ECE5DE0709F487C068F4C2308CE5D8071A
:100E400009F477C0C330DC4509F0E3C080910D029E
:100E5000826076C0C630ECE5DE0709F46EC008F0AB
:100E60007BC080910D0288606BC0CC308CE5D807C8
:100E700009F485C068F4CA30ECE5DE0709F474C0F3
:100E800008F079C00E94390D80910D02806858C029
:100E9000CE308CE5D80709F476C008F07FC0809189
:100EA0000D028BC0CC3FECE5DE0709F44FC018F50E
:100EB000C3318CE5D80709F47DC078F4C131ECE585
:100EC000DE0709F473C0C231DC4509F0A2C00E94FC
:100ED000390D80910D028F7733C0C5318CE5D8076D
:100EE00009F472C008F486C0CB3FDC4509F091C01C
:100EF00080910E023EC0C115FDE5DF0709F45FC019
:100F000058F4CE3F9CE5D90709F444C008F43FC02B
:100F100080910E0282602DC0C230FDE5DF0709F42A
:100F200075C008F45DC0C330DD4509F072C080E0D3
:100F30006EC080910D02816003C080910D028061BE
:100F400080930D0266C080910D0211C080910E0247
:100F5000826080930E025DC080910D028062F0CFAE
:100F600080910D028064ECCF80910D0288608460D6
:100F7000E7CF8160EECF80910D028E7FE1CF80912F
:100F80000D028D7FDDCF80910D02877FD9CF8091BB
:100F90000E0218C080910E028D7FDBCF80910D0272
:100FA0008F7ECECF80910D028F7DCACF80910D02B2
:100FB0008F7BC6CF80910D02877F8B7FC1CF8091C1
:100FC0000E028D7F8E7FC5CF80910D0282FB22277E
:100FD00020F991E0922790FB82F990FB83F9B0CF42
:100FE00080910E02982F909591708E7F892B90FBA7
:100FF00081F9AFCF0E94390D80910D0287FB222726
:1010000020F991E0922790FB87F99ACF81E00E9426
:10101000DB1380910D0290910E020E9456130E94E4
:10102000390D80E001C081E0DF91CF910895CF9329
:10103000DF9386319C4541F5EB010E948812982F81
:101040008A812091000130910101882379F09A7AF8
:1010500081E009F480E080938A01911102C069E285
:1010600001C065E3C9010E9422140AC080918A016F
:10107000811102C069E201C065E3C9010E94241424
:101080000E94C91280E001C081E0DF91CF910895F4
:101090009093900180938F010895E0918F01F091DA
:1010A0009001309721F00190F081E02D099480E0CB
:1010B0000895E0918F01F0919001309721F0028026
:1010C000F381E02D09940895E0918F01F091900152
:1010D000309739F022E0DC012C930480F581E02D7B
:1010E0000994089520918D0130918E0128173907B8
:1010F00071F090938E0180938D01E0918F01F091BA
:101100009001309721F00680F781E02D0994089531
:1011100020918B0130918C012817390771F0909341
:101120008C0180938B01E0918F01F09190013097B9
:1011300021F00084F185E02D0994089585B7806839
:1011400085BF85B7806885BF089581E008950C94B8
:10115000A50808950C94A9080C94A9080C94AC084F
:101160000C94A9080C94B0080C94A9080E949E083D
:101170000E94B4080C94B2080E94A8140E94800532
:101180000E942C150C94AE08CF92DF92EF92FF9242
:101190000F931F93CF93DF93CDB7DEB72A970FB688
:1011A000F894DEBF0FBECDBF0E94AA080E94A90816
:1011B0000E949D050E94A708882309F43FC080E093
:1011C0000E9452057C01C0909201D0909301C826E4
:1011D000D926C114D10491F18091EC0181FD0E94C6
:1011E0005B0580E001E010E0960120233123232BF2
:1011F00001F18E831F82E022F12281E0EF2809F4C1
:1012000080E088870E94B1148160782F9A8789874F
:101210004E815F8168858A850E945909809192017B
:10122000909193010827192710939301009392013D
:1012300015C08F5F000F111F8C30B1F68FEF8983BF
:101240008A831B820E94B1148160782F9D838C83D6
:1012500049815A816B818D810E9459090E94DB1658
:101260000E944D08909191018917A1F00E944D08AC
:10127000809391012A960FB6F894DEBF0FBECDBFC2
:10128000DF91CF911F910F91FF90EF90DF90CF9062
:101290000C945D032A960FB6F894DEBF0FBECDBF47
:1012A000DF91CF911F910F91FF90EF90DF90CF9042
:1012B0000895CF93DF93CDB7DEB72B970FB6F89491
:1012C000DEBF0FBECDBF4F83588769877A878B8774
:1012D000DE01119686E0FD0111928A95E9F785E01D
:1012E000FE01379601900D928A95E1F749815A8166
:1012F0006B817C818D819E810E94F20F2B960FB6AF
:10130000F894DEBF0FBECDBFDF91CF910895FC01F1
:10131000808191810E9449120895CF93882309F416
:10132000A4C0C82F8238C1F40E944D0881FD9DC021
:1013300069E380910001909101010E9422140E94B2
:10134000C9122FEF81EE94E0215080409040E1F7E8
:1013500000C0000069E319C0833801F50E944D0800
:1013600080FD83C063E580910001909101010E949E
:1013700022140E94C9122FEF81EE94E02150804088
:101380009040E1F700C0000063E58091000190917A
:1013900001010E942414CF910C94C9128438C1F425
:1013A0000E944D0882FD61C067E480910001909128
:1013B00001010E9422140E94C9122FEF81EE94E0D5
:1013C000215080409040E1F700C0000067E4DDCF8D
:1013D0008CEF8C0F813AD0F46C2F809100019091AA
:1013E00001010E94EC13882349F06C2F80910001C9
:1013F000909101010E9424140E94C9126C2F8091C7
:101400000001909101010E942214C5CF80E28C0F4F
:10141000883048F4C77081E001C0880FCA95EAF7A8
:101420000E948B12B8CFEBE5EC0FE33040F4F0E014
:10143000E058FE4F808190E0CF910C947208E8E56F
:10144000EC0FE73150F4F0E0EE0FFF1FEE5AFE4FC5
:1014500080819181CF910C948808C03F30F08C2F0F
:101460000E94D015CF910C94BD16CF91089588237A
:1014700009F464C0823879F40E944D0881FF5EC08F
:1014800069E380910001909101010E9422140E9461
:10149000C91269E310C08338B1F40E944D0880FF7F
:1014A0004DC063E580910001909101010E942214DA
:1014B0000E94C91263E580910001909101010E9490
:1014C00024140C94C912843879F40E944D0882FFC8
:1014D00035C067E480910001909101010E942214BF
:1014E0000E94C91267E4E7CF9CEF980F913A10F47D
:1014F000682FE1CF90E2980F983050F4877091E018
:1015000001C0990F8A95EAF7892F0E949112D9CFCD
:101510009BE5980F933020F480E090E00C947208E3
:1015200098E5980F973120F480E090E00C948808BB
:10153000803F20F00E9438160C94BD160895CF937A
:10154000C82F0E948D09C93349F42FEF87EE93E02D
:10155000215080409040E1F700C000008C2FCF91D7
:101560000C94370A882321F00E948B120C94C91224
:101570000895882321F00E9491120C94C9120895B5
:10158000CF92DF92EF92FF920F931F93CF93DF934F
:101590007C01D62FC72FFC01058102950F701281A7
:1015A00011110E94A8120E948112882399F0112320
:1015B00089F08C2F807F803421F080E28D0F88307D
:1015C00048F082E00E9413130E94811291E0D82E0D
:1015D000D92601C0D12CCC2EC2948FE0C8228C2DEC
:1015E00090E08C30910508F0B6C1FC01EA5AFF4F3B
:1015F0000C94C71E8C2F807FCF70882311F0C2956A
:10160000C07F112399F0CC2309F491C180E28D0FA2
:10161000883010F0D11104C08C2F0E948B1203C0AF
:101620008C2F0E949B120E94C91281C18D2F0E9493
:10163000370ACC2309F48FC180E28D0F883010F077
:10164000D11104C08C2F0E94911203C08C2F0E94D4
:10165000A1120E94C9127FC18C2F807FCF7080326F
:1016600011F0C295C07FDD2319F0D130C9F022C03E
:10167000112371F0002341F0013031F40E94AE12C9
:101680008C2B0E94B61267C10E94AE128C2B1DC01B
:10169000002319F0013009F45EC10E94BF1225C079
:1016A000112321F0063008F056C10EC0053008F0B5
:1016B00052C11BC0112361F0002331F0F701858175
:1016C00080FF35C18F7085838C2F0E94B20A43C181
:1016D000002359F0D93309F03BC1FFEF07EE13E0C7
:1016E000F15000401040E1F731C18C2F0E94B90A3F
:1016F00032C18C2F86958695837019F0813061F008
:101700002AC1112321F08D2F9C2F937002C080E0FD
:1017100090E00E94720827C1112321F08D2F9C2F89
:10172000937002C080E090E00E9488081CC18D2F59
:10173000112319F00E94D01502C00E9438160E9491
:10174000BD1611C18C2F837009F047C0111107C15C
:101750002D2F229526952770220F220F6D2F6F7047
:10176000862F90E0A0E0B0E0022E04C0880F991F01
:10177000AA1FBB1F0A94D2F7D4FF10C04FE050E05D
:1017800060E070E004C0440F551F661F771F2A9564
:10179000D2F7409550956095709503C040E050E0B9
:1017A000BA01C695C695C3708A019B01082B192BF7
:1017B0002A2B3B2BC901B801C23049F058F4C13083
:1017C00019F00E94C610CBC00E94B410C8C00E947D
:1017D000D810C5C00E94B210C2C0112319F08C2FBE
:1017E000817001C08695882309F4B9C02D2F2295F8
:1017F00026952770220F220F6D2F6F70862F90E095
:10180000A0E0B0E0022E04C0880F991FAA1FBB1FE2
:101810000A94D2F7D4FF10C04FE050E060E070E0CF
:1018200004C0440F551F661F771F2A95D2F74095B5
:1018300050956095709503C040E050E0BA01C695A0
:10184000C695C3708A019B01082B192B2A2B3B2BB1
:10185000C901B801C23049F058F4C13019F00E94F2
:101860008B117DC00E9479117AC00E949D1177C0B2
:101870000E94EC1074C0CF70112339F08C2F0E949D
:1018800012118D2F0E94B20A6AC08D2F0E94B90AD0
:101890008C2F0E94331163C0D23F01F128F4D03F56
:1018A00041F0D13FA1F03FC0D33FF9F0D43F39F12F
:1018B0003AC0112341F0053008F04DC08C2F8F71D4
:1018C0000E94581148C0063008F045C0F7CF1123D8
:1018D00039F08C2F8F710E9412113DC01123C9F372
:1018E0008C2F8F710E94331136C0112329F08C2F59
:1018F0008F710E94FD102FC00E94F8102CC0112380
:1019000049F0CF718C2F0E94121163E08C2F0E943E
:10191000FE1221C081E00E9413130230E0F082E049
:101920000E94131318C0112331F0002391F28D2F60
:101930000E948D0910C0002399F2D93349F41FEF9A
:1019400027EE33E0115020403040E1F700C00000A6
:101950008D2F0E94370A88EF8C0D843020F40E946E
:101960004D080E945D03DD20C9F00E947D1280FDBC
:1019700015C0F70112820E9477120E941211C7014E
:101980000E94EF0C0E947712DF91CF911F910F916F
:10199000FF90EF90DF90CF900C943311DF91CF91B7
:1019A0001F910F91FF90EF90DF90CF9008950F93CC
:1019B0001F93CF93DF93EC01688179818A810E9424
:1019C00054128C010E94AF110E94A010B801CE01E8
:1019D0000E94C00ADF91CF911F910F910895CF937C
:1019E000DF93EC01988189812B813C81232B31F09D
:1019F0008F3F31F481E09F3F19F403C081E001C0C3
:101A000080E080FD19C0CE010E94190381110CC035
:101A10000E948112882381F08A81882369F082E004
:101A2000DF91CF910C941313CE010E94D70CCE01FD
:101A3000DF91CF910C943602DF91CF9108950E94EF
:101A4000A8120E94AB120E94C9120E94EE170E94B7
:101A5000BD1680E090E00E94720880E090E00C9457
:101A6000880880910001909101010E9426140C9435
:101A70001F0D0E9498120C94310DE92FE295EF7022
:101A80004E2F50E0FA013297EE30F105B0F4EE59E6
:101A9000FF4F0C94C71E803F91F018F4883E68F405
:101AA0000EC0843F51F40BC0883E48F0813F29F4BA
:101AB00006C093FB882780F9089580E0089581E0AF
:101AC00008950E9449120E943D0D0895CF93DF931F
:101AD00000D000D01F92CDB7DEB70F900F900F90BF
:101AE0000F900F90DF91CF910895CF93DF9300D0A7
:101AF00000D000D0CDB7DEB726960FB6F894DEBF83
:101B00000FBECDBFDF91CF9108951F93CF93DF9389
:101B1000C091950116E080919601C81799F0D0E028
:101B20001C9FF0011D9FF00D1124E956FE4F4081CE
:101B3000518162817381848195810E94750D219606
:101B4000C770E9CFDF91CF911F9108954091C701F0
:101B50005091C8016091C9017091CA018091CB0177
:101B60009091CC010C94750D0F931F93CF93DF933D
:101B70008091CC0182958F7009F05DC08091C90180
:101B8000882309F458C080919501109196016091C5
:101B9000C7017091C801C091CA01D091CB0191E0F9
:101BA0006F3F09F090E0292F06E0811709F443C048
:101BB000209721F07F3F21F030E003C031E001C0E9
:101BC000322F90E030FD34C0089FF001099FF00DE6
:101BD0001124DF01A956BE4F11963C91119737137E
:101BE00027C03C91361324C012963C9112973111B4
:101BF0001FC013964D915C9114974C1B5D0B483C94
:101C00005105B0F48091CC018F7080618093CC013C
:101C1000E456FE4F80818F708061808387EC91E075
:101C20000E94EF0CDF91CF911F910F910C94850DC5
:101C300001968770BACFDF91CF911F910F910895D0
:101C40009F92AF92BF92CF92DF92EF92FF920F934B
:101C50001F93CF93DF93CDB7DEB761970FB6F8949C
:101C6000DEBF0FBECDBF8C0185E0F801DE011D9601
:101C700001900D928A95E1F7F80140815181E2804F
:101C80009091C7016091C8012091CA013091CB01A8
:101C90002115310531F06F3F31F481E09F3F19F498
:101CA00003C081E001C080E0F82FF1709F2E80FD1D
:101CB00046C1F801A380B48087ECC82E81E0D82EFD
:101CC000F090C901F501E21BF30BFF2009F4DFC01E
:101CD0008091CC01E83CF10508F09BC0282F207FC3
:101CE00009F052C0561313C0491311C0FE2CE11065
:101CF0000EC08F7080618093CC010E94A60DC6013A
:101D00000E94EF0C8091CC01F801858358C1AB286B
:101D100031F05F3F31F481E04F3F19F403C081E0BF
:101D200001C080E080FD03C081E08E2502C080E01C
:101D300090E0F82FF170FF2E80FF1CC0809195017C
:101D40002091960136E0821709F417C190E0389F80
:101D5000F001399FF00D1124E956FE4F61815613B1
:101D600006C06081461303C06281E61203C001967B
:101D70008770E9CFFE2CEE2009F421C18091CC01BF
:101D800081608093CC015AC0561306C0491304C029
:101D9000E11002C0F8019FC04D875E878D859E854A
:101DA0000E94610D882379F1EE2069F12091CC0128
:101DB000822F82958F7090E0029774F08091C70116
:101DC0009091C80198878F831986BB86AA862C8735
:101DD000CE0107960E94EF0C86E0F801A7ECB1E077
:101DE00001900D928A95E1F70E94B40D0E94A60D14
:101DF0000DC0561729F14D875E878D859E850E94FF
:101E0000610D81112CC0C8010E94EF0CFF24F394D6
:101E1000D6C0282F207F69F77A2DB98AA88A6E2D1F
:101E200089890E94660D87EC91E00E94EF0C86E0A4
:101E3000F60111928A95E9F70E94A60DF12CBFC018
:101E40004913D9CFE110D7CFF8018583C8010E948B
:101E5000EF0C86E0F60111928A95E9F7B0C0EE200A
:101E600091F22091CC01822F82958F7090E00297A1
:101E70000CF4B2CF8091C7019091C8019A838983F5
:101E80001B82BD82AC822E83CE010196A3CFE83C9B
:101E9000F10508F047C0FE2CEE2009F4B4CF56132C
:101EA00030C049132EC02091CC0120FD21C0822FCB
:101EB00082958F70482F50E041155105C9F0F80107
:101EC00025834F30510541F08F5F982F9295907F79
:101ED000822F8F70892B8583C8010E94EF0C86E0CA
:101EE000F801A7ECB1E001900D928A95E1F742C0AC
:101EF00086E0F801A7ECB1E001900D928A95E1F738
:101F00005EC04D875E878D859E850E94610D811123
:101F100063CF8091CC0181608093CC01C8010E9485
:101F2000EF0C4DC07A2DB98AA88A6E2D89890E943E
:101F3000660D86E0F60111928A95E9F71BC0EE2046
:101F400009F461CF4D875E878D859E850E94610D66
:101F5000F82E882309F457CF86E0F801A7ECB1E00A
:101F600001900D928A95E1F787EC91E00E94870934
:101F70000E94B40D0E94A60D22C04D875E878D85FC
:101F80009E850E944912292F22952F70223028F415
:101F90009F7039F0811105C00BC0243028F49F7068
:101FA00049F4805E883020F0C8010E94EF0C9F2C1D
:101FB000F92C05C0F8019581907F99F7F9CF8F2D05
:101FC00061960FB6F894DEBF0FBECDBFDF91CF9103
:101FD0001F910F91FF90EF90DF90CF90BF90AF9047
:101FE0009F9008951F93CF93DF93CDB7DEB72C97C3
:101FF0000FB6F894DEBF0FBECDBF4F8358876987F9
:102000007A878B879C87CE0107960E94200E8823B3
:10201000D1F09F8188852A853B85232B31F08F3F26
:1020200031F481E09F3F19F403C081E001C080E0FA
:1020300080FD47C04F81588569857A858B859C8551
:102040000E94750D3EC086E0FE013796DE011196B6
:1020500001900D928A95E1F7FF81E8856A857B857D
:102060006115710531F0EF3F31F481E0FF3F19F464
:1020700003C081E001C080E080FD23C02091960173
:1020800030E0C9010196877099274091950150E091
:1020900084179507F1F1F983EA837D836C8396E0D9
:1020A000929FD001939FB00D1124A956BE4FFE01FF
:1020B000319601900D929A95E1F7809396010E94D6
:1020C000850D16E08091950190919601891771F127
:1020D000189FC001112489569E4F0E94200E88230C
:1020E00029F1E09195011E9FF0011124E956FE4F60
:1020F0004081518162817381848195810E94750D37
:102100008091950190E001968770992780939501C1
:10211000D9CF0E94390D1092960110929501E7ECEB
:10212000F1E086E0DF011D928A95E9F72C960FB663
:10213000F894DEBF0FBECDBFDF91CF911F91089500
:10214000089508950C94A1100C94A2100E94A4105C
:102150006093DB017093DC018093DD019093DE01DD
:102160000C941F0D0C94A6100F931F930091DB018C
:102170001091DC012091DD013091DE01602B712B8B
:10218000822B932B1F910F910C94A6100F931F93EA
:102190000091DB011091DC012091DD013091DE0125
:1021A00060237123822393231F910F910C94A61017
:1021B0000F931F930091DB011091DC012091DD0151
:1021C0003091DE0160277127822793271F910F919D
:1021D0000C94A6100C94A1100E94EA106093D701F1
:1021E0007093D8018093D9019093DA010C941F0D5C
:1021F00060E070E0CB010C94EC100F931F9341E072
:1022000050E060E070E08A019B0104C0000F111FE4
:10221000221F331F8A95D2F7C901B8011F910F9170
:102220000C94EC100F931F9341E050E060E070E0DD
:1022300004C0440F551F661F771F8A95D2F78091FF
:10224000D7019091D801A091D901B091DA018A010A
:102250009B01082B192B2A2B3B2BC901B8011F917D
:102260000F910C94EC100F931F9341E050E060E04D
:1022700070E004C0440F551F661F771F8A95D2F780
:1022800040955095609570958091D7019091D801B7
:10229000A091D901B091DA018A019B010823192389
:1022A0002A233B23C901B8011F910F910C94EC1014
:1022B0000F931F9341E050E060E070E004C0440FD2
:1022C000551F661F771F8A95D2F78091D70190918D
:1022D000D801A091D901B091DA018A019B010827A8
:1022E00019272A273B27C901B8011F910F910C9488
:1022F000EC100F931F930091D7011091D8012091FA
:10230000D9013091DA01602B712B822B932B1F9115
:102310000F910C94EC100F931F930091D701109123
:10232000D8012091D9013091DA01602371238223F1
:1023300093231F910F910C94EC100F931F93009116
:10234000D7011091D8012091D9013091DA0160278D
:102350007127822793271F910F910C94EC100895F9
:102360002CE0929F800D1124E82FE695E695E695E6
:10237000877051E001C0550F8A95EAF785E0E89F24
:10238000F0011124E353FE4F20E030E070E0408183
:10239000CB01022E02C0969587950A94E2F78170D0
:1023A000819584278523842781932F5F3F4F253094
:1023B000310569F708952CE0929F800D1124682F54
:1023C000669566956695982F977085E0689FB00131
:1023D000112440E050E080E0FB01E40FF51FE353DF
:1023E000FE4F208130E0092E02C0369527950A94D1
:1023F000E2F721703327042E01C0220F0A94EAF776
:10240000822B4F5F5F4F4530510531F70895BF92E2
:10241000CF92DF92EF92FF920F931F93CF93DF93B0
:102420008C01C090D701D090D801E090D901F090F4
:10243000DA018091DB019091DC01A091DD01B09186
:10244000DE01C82AD92AEA2AFB2ACFE1D0E0D70147
:10245000C6010C2E04C0B695A795979587950A944A
:10246000D2F780FD04C0219790F7B12C07C0BC2E95
:10247000B8018C2F0E9479030197A9F38B2DDF916E
:10248000CF911F910F91FF90EF90DF90CF90BF9071
:102490000895CF93DF93EC010E940712BE010E94C2
:1024A0007903DF91CF9108951F93CF93DF93EB01D1
:1024B00090919401992321F0CB010E94491213C0FD
:1024C000882349F0CB010E940712182F682FCE01F4
:1024D0000E94B01104C0CB010E94DB11182FBE0175
:1024E000812F0E947903DF91CF911F9108958091F0
:1024F000DF0185958595859508958091DF01877029
:1025000008959091DF01977081E009F480E00895CB
:102510008091EB0108959091EB01892B8093EB0161
:10252000089580959091EB0189238093EB010895A4
:102530001092EB0108959091EA01892B8093EA01B2
:10254000089580959091EA0189238093EA01089586
:102550001092EA0108951092E90108958091E00136
:10256000089508950C94B1120C94B2129091E00168
:10257000981721F08093E0010C94B4120895809193
:10258000E001882329F01092E00180E00C94B4125D
:102590000895E0910001F09101018091EB018083A9
:1025A000E0910001F091010190818091EA01892B75
:1025B0008083E0910001F091010190818091E90117
:1025C000892B80838091E001882381F0E0910001D4
:1025D000F09101019081892B80838091000190917D
:1025E00001010E94E01381110E94BF12809100013D
:1025F000909101010C9459080C94B11298E0899FB4
:1026000090011124262B2093DF010E94121180914A
:10261000DF018595859585950C94FC121092DF015C
:1026200080E00C94FC122091DF018095822380933E
:10263000DF01982F977079F430E0482F082E000CB6
:10264000550B2417350739F08595859585950E949A
:1026500033110C940E1308956FEF7FEF80E090E03C
:102660000C940D1F80E090E00E94E91E21E08C3E5A
:102670009E4F09F020E0822F089582E090E00C94B4
:10268000E11E83E090E00C94E11ECF9384E090E0A3
:102690000E94E11EC82F81E290E00E94E11E2C2FD3
:1026A00030E0A901582BCA01CF910895CF93C92FCB
:1026B000682F84E090E00E94EF1E6C2F81E290E092
:1026C000CF910C94EF1EAB01BC018FE090E00C9415
:1026D000011FAB01BC0183E190E00C94011F60E09D
:1026E00070E0CB010C94691360E070E0CB010E94B4
:1026F00063130C946F136CEE7EEF80E090E00E9409
:102700000D1F60E082E090E00E94EF1E60E083E039
:1027100090E00E94EF1E1092DB011092DC011092FB
:10272000DD011092DE0160E084E090E00E94EF1E87
:1027300060E081E290E00E94EF1E60E085E090E0C2
:102740000E94EF1E60E086E090E00E94EF1E6FEFB7
:1027500087E090E00E94EF1E40E050E0BA0188E080
:1027600090E00E94011F60E08DE090E00E94EF1E6B
:1027700040E050E0BA0188E190E00E94011F60E073
:1027800087E190E00E94EF1E40E050E0BA018CE14A
:1027900090E00E94011F60E080E290E00E94EF1E46
:1027A00040E050E0BA0188E190E00E94011F0C94E3
:1027B00074130C947B13682F8EE090E00C94EF1E42
:1027C000FC01329697E080E0915029F0219122237C
:1027D000D9F38F5FF9CF0895662349F0FC01329653
:1027E00008962191621729F0E817F907D1F780E0E0
:1027F000089581E008959C01FC0132969FEF80E0EE
:102800004191461789F09F3F19F4411101C0982F5B
:102810008F5F8630A9F79F3F39F0F901E90FF11D6D
:1028200097FDFA956283089508959C012A5F3F4FB2
:10283000FC014281461301C0128201968217930760
:10284000B9F708950C94FB130C941514029626E026
:10285000FC0111922A95E9F7089508950C942D141E
:102860000C942D140E9430140E949D050E942E1479
:1028700080E00E94520521E0892B09F420E0822F9C
:1028800008950C942D140C9441140E9443148091CB
:102890001302843049F11092ED0120E488E190E0C8
:1028A0000FB6F894A895809360000FBE2093600047
:1028B00080E00E945D030E94431483B7817F84609F
:1028C00083BF83B7816083BF7894889583B78E7FF9
:1028D00083BF0FB6F894A8958091600088618093BB
:1028E0006000109260000FBE08950C942D140E9499
:1028F000390D0E944D080E945D030C9475141F92BF
:102900000F920FB60F9211248F939F93AF93BF93A3
:102910008091ED01811113C08091090290910A020A
:10292000A0910B02B0910C024196A11DB11D8093A4
:10293000090290930A02A0930B02B0930C02BF917C
:10294000AF919F918F910F900FBE0F901F90189590
:1029500082E084BD93E095BD9AEF97BD80936E00B1
:1029600008952FB7F8948091090290910A02A091DE
:102970000B02B0910C022FBF08959C014FB7F89441
:102980008091090290910A02A0910B02B0910C0271
:102990004FBF821B930B089578941F920F920FB62E
:1029A0000F9211248F939F93AF93BF93809109024D
:1029B00090910A02A0910B02B0910C020196A11D08
:1029C000B11D8093090290930A02A0930B02B09369
:1029D0000C02BF91AF919F918F910F900FBE0F90FE
:1029E0001F90189581E08093E00080E28093D800EA
:1029F0001092C9008FE19EE40197F1F700C000003A
:102A000087E090EBDC0180931C0290931D02A09361
:102A10001E02B0931F029CE088E10FB6F894A895BF
:102A2000809360000FBE90936000FFCF0C942C1336
:102A30000E949D058FE39CE90197F1F700C000001B
:102A40000E949D0580E00E94520580FF04C00E9404
:102A500016150C94F21408950E943213811102C0CD
:102A60000E94D9130E943D138093EC010E944513EC
:102A700090930E0280930D020E944113682F70E024
:102A800080E090E00E94B2106091D7017091D8016F
:102A90008091D9019091DA010C94EA108091F401AF
:102AA00080FF0BC06091070185E0689FB001112491
:102AB00075956795759567952BC081FF09C06091E5
:102AC000070185E0689FB00111247595679520C0C6
:102AD00082FF07C06091070185E0689FB001112463
:102AE00017C09091F3019923D1F0609106019617D8
:102AF00088F72091070185E0289F90011124929F7B
:102B0000A001939F500D112470E0CA010E94B31ED2
:102B10006038710540F46115710519F406C065E06F
:102B200070E0862F08958FE7089581E008958091E1
:102B3000F40180FF08C06091030170E0759567950E
:102B40007595679521C081FF06C06091030170E013
:102B50007595679519C082FF04C06091030170E00C
:102B600010C09091F201992399F06091020196179B
:102B7000A0F780910301899FC001112470E00E9499
:102B8000B31E6038710540F46115710519F406C073
:102B900061E070E0862F08958FE7089581E0089541
:102BA000803F21F40E944E15819504C0813F29F495
:102BB0000E944E158093F8010895823F21F40E94EF
:102BC0004E15819504C0833F29F40E944E158093D1
:102BD000F7010895893F19F40E94971505C08A3FAF
:102BE00031F40E94971581958093F90108958B3FE8
:102BF00021F40E949715819504C08C3F29F40E940E
:102C000097158093FA010895843F21F48091F6018D
:102C1000816017C0853F21F48091F601826011C068
:102C2000863F21F48091F60184600BC0873F21F438
:102C30008091F601886005C0883F31F48091F601EB
:102C400080618093F60108958D3F21F48091F40115
:102C500081600BC08E3F21F48091F401826005C039
:102C60008F3F29F48091F40184608093F4010895EA
:102C7000803F39F48091F80187FF6AC01092F80113
:102C800067C0813F29F48091F8011816BCF360C039
:102C90009091F701823F29F497FF5AC01092F701F3
:102CA00057C0833F19F41916CCF352C09091F90123
:102CB000893F31F419160CF04BC01092F90148C04D
:102CC0008A3F19F497FF44C0F8CF8B3F39F48091C5
:102CD000FA0187FF3DC01092FA013AC08C3F29F4F7
:102CE0008091FA011816BCF333C0843F21F480911F
:102CF000F6018E7F17C0853F21F48091F6018D7F0C
:102D000011C0863F21F48091F6018B7F0BC0873F75
:102D100021F48091F601877F05C0883F31F48091CE
:102D2000F6018F7E8093F60113C08D3F21F48091D0
:102D3000F4018E7F0BC08E3F21F48091F4018D7FD2
:102D400005C08F3F29F48091F4018B7F8093F401BB
:102D50008091F701811106C08091F801811102C0B4
:102D60001092F3018091F901811106C08091FA015E
:102D7000811102C01092F20108950E94B1142091B5
:102D8000F701211104C02091F801222321F0909332
:102D9000F1018093F0012091F901211104C02091EB
:102DA000FA01222321F09093EF018093EE0185EF49
:102DB00091E00C946408EF92FF920F931F93CF93CE
:102DC000DF9300D000D000D0CDB7DEB786E0E5EFCE
:102DD000F1E0DE01119601900D928A95E1F7E09005
:102DE000F701F090F8010091F9011091FA011092A9
:102DF000F7011092F8011092F9011092FA01E11016
:102E000003C0FF2009F45DC08091F0019091F101B1
:102E10000E94BD14AC019091F301992339F02091E7
:102E2000080130E02417350758F04BC02091090104
:102E30008AE0289F900111242417350718F041C01B
:102E40009F3F19F09F5F9093F301EE2061F00E9485
:102E50004E151E1414F09FEF01C091E0989F902D25
:102E600011249093F701FF2061F00E944E151F146A
:102E700014F09FEF01C091E0989F902D1124909342
:102E8000F8013091F7013323E1F02091F80122237A
:102E9000C1F045EB3403C0011124992319F090933C
:102EA000F70103C081E08093F70135EB2303C001F4
:102EB0001124992319F09093F80103C081E08093C5
:102EC000F801011103C0112309F45DC08091EE01E6
:102ED0009091EF010E94BD14AC019091F2019923F1
:102EE00039F02091040130E02417350758F04BC029
:102EF000209105018AE0289F9001112424173507AD
:102F000018F041C09F3F19F09F5F9093F20100239A
:102F100061F00E949715101614F09FEF01C091E028
:102F2000989F902D11249093F901112361F00E9434
:102F30009715111614F09FEF01C091E0989F902D06
:102F400011249093FA013091F9013323E1F020919B
:102F5000FA012223C1F045EB3403C0011124992367
:102F600019F09093F90103C081E08093F90135EBEA
:102F70002303C0011124992319F09093FA0103C08F
:102F800081E08093FA018091F70181110BC080915B
:102F9000F801811107C08091F901811103C080916E
:102FA000FA0181110E94BD16EB82FC820D831E8303
:102FB00086E0FE013196A5EFB1E001900D928A9571
:102FC000E1F726960FB6F894DEBF0FBECDBFDF91B6
:102FD000CF911F910F91FF90EF900895E5EFF1E0F1
:102FE00086E0DF011D928A95E9F71092F3011092B5
:102FF000F2011092F4010895809103020895CF9395
:10300000DF9300D01F92CDB7DEB7909113029430BA
:1030100019F589837B836A8382E08093E9008FEFCF
:103020009091E800815095FD06C095ED9A95F1F7D5
:1030300000008111F5CF8091E80085FF0DC040E0D0
:1030400050E063E070E0CE0101960E94151A809175
:10305000E8008E778093E8000F900F900F90DF913B
:10306000CF910895BC0184E00C94FF17BC0183E06C
:103070000C94FF1722E02093E9002FEF3091E80035
:10308000215035FD06C035ED3A95F1F700002111CC
:10309000F5CF2091E80025FF0BC040E050E066E04E
:1030A00070E00E94151A8091E8008E778093E80006
:1030B0000895CF93DF9321E02093E9002FEF309123
:1030C000E800215035FD06C035ED3A95F1F70000D6
:1030D0002111F5CF2091E80025FF14C0EC0140E05C
:1030E00050E068E070E00E94151A8091E8008E7749
:1030F0008093E80088E0FE01ABEFB1E001900D9213
:103100008A95E1F7DF91CF910895809112028111A4
:1031100009C00E94A61B0E94031C8091E2008460EB
:103120008093E20008951092120208950895089580
:103130000C94771442E061EC81E00E941F1B42E294
:1031400061EC82E00C941F1B80911502833009F41E
:1031500060C030F4813071F0823009F499C0089574
:103160008A3009F485C08B3009F46BC0893009F0CE
:10317000A7C020C080911402813A09F0A1C08091BB
:10318000E800877F8093E8008091180290911902EF
:10319000892B21F468E08BEF91E003C060E080E0D0
:1031A00090E070E00E94601A8091E8008B77809335
:1031B000E800089580911402813209F081C0809165
:1031C000180290911902029708F07AC08091E800E5
:1031D000877F8093E8008091E80082FD05C08091A0
:1031E00013028111F8CF6CC02091F3008091F2009E
:1031F00090E0922B029729F48091F1008B7F81302F
:1032000021F48091F100809303028091E8008B7794
:1032100053C080911402813A09F052C08091180283
:1032200090911902892B09F04BC08091E800877FAB
:103230008093E8008091E80080FFFCCF809114012A
:1032400036C0809114028132D9F580911802909194
:103250001902892BA9F58091E800877F8093E80007
:103260000E94541B80911602809314010C94390D16
:1032700080911402813221F58091E800877F80934C
:10328000E8000E94541B8091170280930402089565
:1032900080911402813AA1F48091E800877F8093A5
:1032A000E8008091E80080FFFCCF809104028093C9
:1032B000F1008091E8008E778093E8000C94541B15
:1032C000089584B7877F84BF0FB6F894A89580913E
:1032D0006000886180936000109260000FBE90E0F3
:1032E00080E80FB6F89480936100909361000FBE60
:1032F0000E94B6080E94A61B0E94031C8091E20057
:1033000084608093E20078940E94981E0E94BC081A
:103310008AE091E00E94480880911302853069F4A8
:103320000E944514809111028823B1F30E94321447
:10333000882391F30E94FF19EFCF0E94C4080E94D6
:10334000AA080E94A908E8CF0C94A619292F3327B0
:1033500023303105C9F060F42130310581F022308D
:10336000310509F044C08BE390E023E132E043C033
:1033700021323105E1F02232310549F138C082E1D4
:1033800090E02EE432E037C099278130910549F072
:1033900028F0029761F5E1EFF1E005C0EFE0F2E01F
:1033A00002C0E3E0F2E0849190E09F0124C0611547
:1033B000710541F061307105D1F489E090E02EE3B0
:1033C00032E019C089E090E025E232E014C06115D6
:1033D000710541F06130710551F481E890E020E61B
:1033E00032E009C080E490E021EE32E004C080E0E9
:1033F00090E020E030E0FA0131832083089580E1FD
:1034000089BD82E189BD09B400FEFDCF8091D8005D
:103410008F7D8093D8008091E00082608093E000EF
:103420008091E00081FDFCCF0895CF92DF92EF9272
:10343000FF920F931F93CF93DF93EC018B017A01DF
:103440000E94731B811133C0E114F10439F0F701BC
:1034500080819181081B190BC80FD91FC12CD12C59
:103460000115110519F18091E80085FD16C08091C4
:10347000E8008E778093E800E114F10449F0F70149
:1034800080819181C80ED91ED182C08285E00FC093
:103490000E94731B882321F30AC089918093F10055
:1034A00001501109FFEFCF1ADF0ADACF80E0DF9178
:1034B000CF911F910F91FF90EF90DF90CF900895E3
:1034C00020911A0230911B022617370748F0611528
:1034D000710539F42091E8002E772093E80001C0AF
:1034E000B901FC0120E06115710579F180911302A9
:1034F0008823F1F18530F1F18091E80083FD3CC033
:103500008091E80082FD2EC08091E80080FFEBCF23
:103510002091F3008091F20090E0922B61157105EB
:1035200051F08830910538F421912093F1006150D9
:1035300071090196F3CF21E0089709F020E080910E
:10354000E8008E778093E800CECF2111CFCF0AC05C
:1035500080911302882361F0853061F08091E8004A
:1035600083FD0AC08091E80082FFF2CF80E00895D9
:1035700082E0089583E0089581E0089520911A0281
:1035800030911B022617370748F06115710539F491
:103590002091E8002E772093E80001C0B901FC01DA
:1035A00020E06115710591F180911302882309F4DF
:1035B00040C0853009F43FC08091E80083FD3DC0E4
:1035C0008091E80082FD2FC08091E80080FFE9CF64
:1035D0002091F3008091F20090E0922B611571052B
:1035E00059F08830910540F424912093F1003196F0
:1035F000615071090196F2CF21E0089709F020E0AF
:103600008091E8008E778093E800CBCF2111CCCF5A
:103610000AC080911302882361F0853061F08091A7
:10362000E80083FD0AC08091E80082FFF2CF80E0CD
:10363000089582E0089583E0089581E00895982F29
:10364000973068F59093E900981739F07091EC0085
:103650002091ED005091F00003C0242F762F50E010
:1036600021FD02C09F5FECCF3091EB003E7F309395
:10367000EB003091ED003D7F3093ED003091EB0099
:1036800031603093EB007093EC002093ED00509389
:10369000F0002091EE0027FDE5CF80E008958F70C7
:1036A0008093E90081E008958091140287FF11C0A2
:1036B0008091E80082FD05C0809113028111F8CF4E
:1036C00011C08091E8008B770BC080911302882392
:1036D00049F08091E80080FFF8CF8091E8008E7774
:1036E0008093E80008952091E4003091E50095E68C
:1036F0004091EC00842F817040FF23C08091E8004E
:1037000080FD1DC080911302882399F0853099F0C7
:103710008091EB0085FD11C04091E4005091E500DF
:103720002417350729F3915011F09A01E1CF84E075
:10373000089582E0089583E0089581E0089580E08F
:1037400008954091E80042FFDDCF08950E94141CC7
:103750000E941C1CE0EEF0E0808181608083E8ED37
:10376000F0E080818F77808319BCA7EDB0E08C9169
:103770008E7F8C9380818F7E8083109212020895B9
:103780000F931F93CF93DF930E94141C0E941C1C65
:10379000C8EDD0E088818F778883888180688883AE
:1037A00088818F7D888319BC1092130210920F02BA
:1037B000109211021092100200EE10E0F8018081C8
:1037C0008B7F808388818160888342E060E080E035
:1037D0000E941F1BE1EEF0E080818E7F8083E2EE8D
:1037E000F0E0808181608083808188608083F8013F
:1037F00080818E7F8083888180618883DF91CF91F3
:103800001F910F910895E8EDF0E080818F7E808315
:10381000E7EDF0E080818160808384E082BF81E019
:10382000809312020C94C01BE8EDF0E080818E7F43
:1038300080831092E20008951092DA001092E10065
:1038400008951F920F920FB60F9211242F933F935A
:103850004F935F936F937F938F939F93AF93BF9398
:10386000EF93FF938091E10082FF0BC08091E20013
:1038700082FF07C08091E1008B7F8093E1000E946E
:10388000971E8091DA0080FF1FC08091D80080FFD2
:103890001BC08091DA008E7F8093DA008091D9007E
:1038A00080FF0DC080E189BD82E189BD09B400FEC1
:1038B000FDCF81E0809313020E94851805C019BCDA
:1038C000109213020E9493188091E10080FF19C0AA
:1038D0008091E20080FF15C08091E2008E7F80938E
:1038E000E2008091E20080618093E2008091D80044
:1038F00080628093D80019BC85E0809313020E94F7
:1039000097188091E10084FF30C08091E20084FF2D
:103910002CC080E189BD82E189BD09B400FEFDCFE4
:103920008091D8008F7D8093D8008091E1008F7EB8
:103930008093E1008091E2008F7E8093E20080918D
:10394000E20081608093E20080910F02882311F0F1
:1039500084E007C08091E30087FD02C081E001C0E0
:1039600083E0809313020E9498188091E10083FF06
:1039700029C08091E20083FF25C08091E100877F0C
:103980008093E10082E08093130210920F028091F5
:10399000E1008E7F8093E1008091E2008E7F809332
:1039A000E2008091E20080618093E20042E060E00A
:1039B00080E00E941F1B8091F00088608093F000DF
:1039C0000E949618FF91EF91BF91AF919F918F91B7
:1039D0007F916F915F914F913F912F910F900FBE0B
:1039E0000F901F9018951F920F920FB60F921124EF
:1039F0002F933F934F935F936F937F938F939F93F7
:103A0000AF93BF93CF93DF93EF93FF93C091E90000
:103A1000CF708091EC00D82FD17080FDD0E810924B
:103A2000E9008091F000877F8093F00078940E94F5
:103A3000371D1092E9008091F00088608093F000BB
:103A4000CD2BCF70C093E900FF91EF91DF91CF9123
:103A5000BF91AF919F918F917F916F915F914F91A6
:103A60003F912F910F900FBE0F901F9018951F93AD
:103A7000CF93DF93CDB7DEB7AA970FB6F894DEBF2A
:103A80000FBECDBFE4E1F2E08091F100819322E02E
:103A9000EC31F207C9F70E94A4188091E80083FF77
:103AA0002EC18091140290911502492F50E04A30A6
:103AB000510508F024C1FA01E059FF4F0C94C71ECC
:103AC000803821F0823809F01AC108C080911002B4
:103AD00090911102992389F082600FC080911802A1
:103AE0008F70873008F00BC18093E9008091EB0064
:103AF00085FB882780F91092E9009091E800977F74
:103B00009093E8008093F1001092F100D1C0282F2B
:103B10002D7F09F0F4C0882319F0823061F0EFC0E6
:103B200080911602813009F0EAC0933009F080E0FC
:103B3000809311022EC08091160281112AC08091BB
:103B400018028F702FEF280F263008F0D8C080930E
:103B5000E9002091EB0020FF1CC0933021F48091FC
:103B6000EB00806214C09091EB0090619093EB00A9
:103B700021E030E0A90102C0440F551F8A95E2F709
:103B80004093EA001092EA008091EB0088608093F5
:103B9000EB001092E9008091E800877F8093E800B5
:103BA0000E94541BACC08111AAC0109116021F774D
:103BB0008091E3008078812B8093E3008091E8007E
:103BC000877F8093E8000E94541B8091E80080FF6B
:103BD000FCCF8091E30080688093E300111102C064
:103BE00082E001C083E08093130289C08058823054
:103BF00008F085C080911602909117028C3D53E029
:103C0000950779F583E08A838AE289834FB7F89430
:103C1000DE01139620E03EE051E2E32FF0E0509306
:103C20005700E49120FF03C0E295EF703F5FEF7013
:103C30008E2F90E0EA3010F0C79601C0C0968D93A9
:103C40009D932F5F243149F74FBF8091E800877F14
:103C50008093E8006AE270E0CE0101960E94601A4B
:103C600016C06091180270911902AE014F5F5F4F4C
:103C70000E94A419BC01892B09F441C09091E8006D
:103C8000977F9093E80089819A810E94BE1A809163
:103C9000E8008B778093E80032C0803881F580910E
:103CA000E800877F8093E80080910F028093F10005
:103CB0008091E8008E7772CF811121C08091160229
:103CC0009091170299270297D4F48091E800877F9A
:103CD0008093E8008091160280930F020E94541B8B
:103CE00080910F02811106C08091E30087FD02C020
:103CF00081E001C084E0809313020E949A188091B1
:103D0000E80083FF0AC08091E800877F8093E80085
:103D10008091EB0080628093EB00AA960FB6F89436
:103D2000DEBF0FBECDBFDF91CF911F9108950895E3
:103D3000CF93809113028823A1F0C091E900CF7046
:103D40009091EC00892F817090FD80E8C82B109233
:103D5000E9008091E80083FD0E94371DCF70C09379
:103D6000E900CF91089597FB072E16F4009407D031
:103D700077FD09D00E94CD1E07FC05D03EF490953A
:103D800081959F4F0895709561957F4F0895EE0F2F
:103D9000FF1F0590F491E02D0994AA1BBB1B51E174
:103DA00007C0AA1FBB1FA617B70710F0A61BB70BAB
:103DB000881F991F5A95A9F780959095BC01CD0150
:103DC0000895F999FECF92BD81BDF89A992780B5E3
:103DD0000895A8E1B0E042E050E00C94151F262FB2
:103DE000F999FECF92BD81BDF89A019700B40216F1
:103DF00039F01FBA20BD0FB6F894FA9AF99A0FBE9F
:103E000008950396272F0E94F01E0E94EF1E252F73
:103E10000E94F01E242F0C94F01E0196272F0E9462
:103E2000F01E0C94EF1EDC01CB01FC01F999FECFD2
:103E300006C0F2BDE1BDF89A319600B40D92415032
:0A3E40005040B8F70895F894FFCF42
:103E4A00E1012808641E140A321EFC1759183A1890
:103E5A003618321801E200E900EA00B500B600B7E8
:103E6A0000CD008301CC008A019201940121022332
:103E7A000224022502260227022A02B300B4006F96
:103E8A0000700081828391909466C634F4F5F6F747
:103E9A003132E200E900EA00B500B600B700CD0011
:103EAA008301CC008A019201940121022302240297
:103EBA002502260227022A02B300B4006F0070000E
:043ECA00818283006E
:00000001FF
