:100000000C9496040C94DD040C94DD040C94DD0433
:100010000C94DD040C94DD040C94DD040C94DD04DC
:100020000C94DD040C94DD040C94E1280C94B329A9
:100030000C94DA1F0C94DD040C94DD040C94DD04A4
:100040000C94DD040C94DD040C94DD040C94DD04AC
:100050000C94DD040C9427200C94DD040C94DD0436
:100060000C94DD040C94DD040C94DD040C94DD048C
:100070000C94DD040C94DD040C94DD040C94DD047C
:100080000C94DD040C94DD040C94DD040C94DD046C
:100090000C94DD040C94DD040C94DD040C94DD045C
:1000A0000C94DD040C94DD040C94DD04D40FD70F04
:1000B000DF0FE40FE90FEE0FF30FF80FFD0F021043
:1000C00007100C100E101110141017101A101D101C
:1000D0001F1024104215421574157415C115DF1533
:1000E00000170017EA157F1690169016F0160017E5
:1000F0000017F916A017A017B217B217A917B21751
:10010000B217B217A017A017AE17B217B217AE17D3
:10011000202A472A3F2B472A3F2B932AB62A3F2BD8
:100120000D2B1C2B2900E000E1001C000B002C72A1
:10013000146404001D0018000D0011411A0016007F
:100140001B680C000E0010000800070006001200DB
:100150000F00360015000900194313002D00370069
:1001600017000A0005422A0028002C002B00E0009E
:10017000E10023002E0201001E001E0201002400E7
:100180002D0001001F001F020100250025020100B3
:100190002000200201002600380001002100210279
:1001A000010027002E0001002200220201002A0087
:1001B00028002C002B00E000E1003F00500001006F
:1001C0003A002F002D024000510001003B0030009A
:1001D00031024100520001003C0031002302420084
:1001E0004F0001003D00330035024300380201009A
:1001F0003E0033020100005C28002C0001000100D9
:1002000001000100C95C01000100C35C01000100A4
:10021000CA5C01000100C45C01000100CB5C01006C
:100220000100C65C01002602010001000100C75C5C
:1002300001002702010001000100C85C010001006B
:1002400001000100010001000100010001000100A6
:100250000100010001000100010001000100010096
:100260000100010001000100010001000100010086
:100270000100010001000100010001000100010076
:1005A0000100010032190A00047F3F1F6432146405
:1005B0003214783C1E1E140A052223252628292AD7
:1005C0002C2D2F3032333536383A3B3D3E404243B6
:1005D0004547494A4C4E5051535557595A5C5E60F5
:1005E00062646668696B6D6F71737577797B7D7F07
:1005F00081838587898A8C8E90929496989A9C9E06
:100600009FA1A3A5A7A8AAACAEAFB1B3B4B6B8B921
:10061000BBBCBEBFC1C2C3C5C6C7C9CACBCCCDCE89
:10062000D0D1D2D2D3D4D5D6D7D7D8D9D9DADADB6C
:10063000DBDBDCDCDCDCDCDDDDDDDDDCDCDCDCDCF8
:10064000DBDBDBDADAD9D9D8D7D7D6D5D4D3D2D237
:10065000D1D0CECDCCCBCAC9C7C6C5C3C2C1BFBE1F
:10066000BCBBB9B8B6B4B3B1AFAEACAAA8A7A5A38A
:10067000A19F9E9C9A98969492908E8C8A89878549
:1006800083817F7D7B79777573716F6D6B69686628
:100690006462605E5C5A5957555351504E4C4A49FA
:1006A00047454342403E3D3B3A3836353332302FA2
:1006B0002D2C2A292826252322FFAA7F5540000118
:1006C0000101010101010101020202020202020212
:1006D00002030303030303030304040404040404E4
:1006E00005050505050606060606070707070708A8
:1006F000080808090909090A0A0A0B0B0B0C0C0C5B
:100700000D0D0D0E0E0E0F0F0F10101111111212F4
:1007100013131414151516161717181819191A1A71
:100720001B1B1C1D1D1E1E1F2020212222232424D2
:10073000252626272829292A2B2C2D2D2E2F30310E
:100740003232333435363738393A3B3C3D3E3F4020
:100750004142434445464748494A4C4D4E4F50510B
:100760005354555658595A5B5D5E5F6162646566C5
:1007700068696B6C6D6F7072737577787A7B7D7E4C
:100780008082838587888A8C8E8F91939596989A9C
:100790009C9EA0A2A3A5A7A9ABADAFB1B3B5B7BAB4
:1007A000BCBEC0C2C4C6C9CBCDCFD1D4D6D8DBDD88
:1007B000DFE2E4E7E9EBEEF0F3F5F8FAFDFF120310
:1007C00063006F006F006C00390033003600530087
:1007D00000000A036D002E006B0069000000040396
:1007E000090409023B00020100A0FA09040000010B
:1007F00003010100092111010001224000070581C8
:100800000308000A09040100010300000009211186
:1008100001000122BC000705820320000A1201101A
:100820000100000008EDFE6060010001020001050A
:10083000010902A10185020901A100050919012987
:100840000515002501950575018102950175038146
:10085000010501093009311581257F95027508814F
:100860000609381581257F950175088106050C0A52
:1008700038021581257F950175088106C0C00501E4
:100880000980A101850319012AB700150126B700C7
:10089000950175108100C0050C0901A1018504199D
:1008A000012AA002150126A002950175108100C041
:1008B00005010906A1018505050719E029E71500CD
:1008C00025019508750181020507190029EF15001A
:1008D000250195F075018102050819012905950585
:1008E00075019102950175039101C005010906A1E9
:1008F00001050719E029E715002501950875018113
:10090000029501750881010507190029FF150026C8
:10091000FF00950675088100050819012905950550
:1009200075019102950175039101C00011241FBE4C
:10093000CFEFDAE0DEBFCDBF04B603FE27C0809163
:10094000EA029091EB02A091EC02B091ED028730A7
:10095000904BA740B04BD1F41092EA021092EB02F8
:100960001092EC021092ED0214BE84B7877F84BF10
:100970000FB6F894A895809160008861809360001C
:10098000109260000FBEE0E0F8E3099511E0A0E0EE
:10099000B1E0E0ECF9E502C005900D92A63CB1078C
:1009A000D9F722E0A6ECB1E001C01D92AA3EB20741
:1009B000E1F70E9421260C94DE2C0C94000081E0CB
:1009C000089581E008950C94E10408950C94E504E1
:1009D0001F93CF93DF9300D000D01F92CDB7DEB727
:1009E00049835A836B833091040289819A81311142
:1009F00014C0662359F0222349F00E94DB1C182FF3
:100A0000682F89819A810E94821C03C00E94AE1CBB
:100A1000182F69817A81812F04C00E94DB1C6981B3
:100A20007A810F900F900F900F900F90DF91CF91E0
:100A30001F910C94A005FC01262F408151816281F9
:100A4000738184810C94E804CF93DF93EC0160E020
:100A50000E941B05BE01DF91CF910C94E6040E9419
:100A60000D1E811102C00E94BE1E0C94BC070C9486
:100A7000B80708950E948E170E9439052FEF84E36E
:100A80009CE0215080409040E1F700C000000C94B1
:100A90004D200F931F93CF93DF93EC0161E00E94F1
:100AA0001B058C01BE010E94E304882379F1BE017D
:100AB000C8010E94CC10882349F1BE01C8010E94E0
:100AC0001E11882319F1BE01C8010E944912882312
:100AD000E9F0BE01C8010E94BD0F8823B9F08A81E8
:100AE000882369F001158CE5180731F00F3D1C458E
:100AF00031F40E94BE1E0AC00E943A0507C0CE0112
:100B0000DF91CF911F910F910C94DF0480E0DF9172
:100B1000CF911F910F91089508950C948C0581E059
:100B200008950C948F05CF93C82F0E948D058C2FAC
:100B30000E949105CF91089580E090E00895089576
:100B400024E2829FC0011124FC0126E0729FE00D87
:100B5000F11D1124E60FF11DEE0FFF1FEC5DFE4F9E
:100B6000859194910895880F991FFC01EC55FA4FD7
:100B7000859194910895CF93DF930E94A0050E94E0
:100B8000D306EC018115904508F041C0C11580E401
:100B9000D80708F0D1C0C83ED10510F5C03ED10538
:100BA00008F0FDC0C83AD10578F4C53AD10508F07F
:100BB000A2C0C130D10509F4F2C008F4EEC0C430BF
:100BC000D10508F0ECC0E9C0CF3BD10508F49BC0CB
:100BD000C03CD10508F4E1C0CE01805C91099EC003
:100BE000C11590E2D90758F4C11521E0D20708F0E9
:100BF000D6C0C03FD10508F4D0C0D065D0C0C11563
:100C000080E3D80708F08EC0CE019F7087C0C11561
:100C100095E5D90708F043C0C11524E5D20708F0CF
:100C2000A2C0C11582E5D80708F5C11591E5D9071D
:100C300008F085C0CE0174E0969587957A95E1F726
:100C400083709C2F937021E030E002C0220F331F8D
:100C50009A95E2F73C68382BCF70C695C69580E22E
:100C6000C89FE0011124C22BD32B99C09E01237091
:100C700033278C2F86958695C115D34508F064C01F
:100C8000C1E0D0E002C0CC0FDD1F2A95E2F720E2E0
:100C9000829FC0011124C82BD92BDC6880C0C115EC
:100CA00029E5D207A0F4C11588E5D80708F060C08F
:100CB000C11596E5D90708F070C08C2F0E94670710
:100CC0008F71C82FD0E0DC2FCC27D06268C0C1154F
:100CD0002AE5D20708F451C0CE0190568115904202
:100CE00008F05BC08D2F8F710E946707DD27D062EF
:100CF0008F71D82B54C0C55AD0E0C65ADE4FC88178
:100D0000D0E0D0644CC0C85AD0E0CC0FDD1FC45D29
:100D1000DE4F0990D881C02DD46441C00E94B30534
:100D2000EC013DC0CE019927D3FF03C0EC01D86C84
:100D300036C0EC01D06C33C0DF70D06A30C0DC2F1D
:100D4000CC27C16FD06A2BC0C1E0D0E002C0CC0F6D
:100D5000DD1F2A95E2F720E2829FC0011124C82BF3
:100D6000D92BDA681CC0DC2FCC27C46FD06A17C01F
:100D7000DC2FCC27C06FD06A12C08C2F8F700E94DE
:100D8000670794E0D695C7959A95E1F7CF70D0E0C4
:100D9000DC2FCC27D069C82B02C0C0E0D0E0CE0148
:100DA000DF91CF9108958238910569F1B0F48133D4
:100DB000910509F46DC048F48932910509F463C0C6
:100DC0008A32910509F469C008958533910509F4C3
:100DD00055C089339105B9F00895833E910569F1B5
:100DE00038F4803E9105B1F0823E910509F10895F5
:100DF000863E9105A9F1873E9105B9F1843E9105A2
:100E000009F064C023C02091DB0220FD4FC021FD0A
:100E10004DC008958091DB0280FD44C08091DC02CA
:100E200080FF44C08091DB0284FD42C083EE4DC050
:100E30008091DB0282FF38C0F5CF8091DB0282FD1A
:100E400033C08091DC0280FD31C0ECCF8091DC02A8
:100E500081FF32C08091DB0284FD2AC087EE35C05D
:100E60008091DB0283FF26C0F5CF8091DB0283FDFA
:100E700021C08091DC0281FD1FC0ECCF8091DB029C
:100E800085FD1CC01DC08091DB0285FD19C016C008
:100E90008091DB0286FD16C017C08091DB0286FDC3
:100EA00013C010C089E311C082EE0FC080EE0DC0E8
:100EB00080E00BC086EE09C084EE07C089E205C061
:100EC00085E303C08AE201C081E390E00895909138
:100ED000DB0292FF0DC0282F2871283019F4877F7C
:100EE000846006C0282F2471243011F48B7F886021
:100EF00093FF0DC0282F2871283119F4877E846153
:100F000006C0282F2471243111F48B7E8861209132
:100F1000DC0220FF0DC0382F3871383019F4877F7C
:100F2000816006C0382F3171313011F48E7F8860B6
:100F300021FF0DC0282F2871283119F4877E816187
:100F400006C0282F2171213111F48E7E886194FD15
:100F5000877E0895E82FF0E0E654FD4F80810895E4
:100F6000089580EA8A95F1F7089508950C94B507DD
:100F70000C94B6070C94B5070C94BA07F894E82FB4
:100F8000E295EF70F0E031A1282F2F7081E090E022
:100F900001C0880F2A95EAF7982F9095932391A383
:100FA00092A1892B82A378940895CF93DF93C3E60F
:100FB000D1E089910E94BE0781E0C936D807C9F700
:100FC000CDE5D1E089910E94BE0781E0C336D80704
:100FD000C9F7E4EBF2E0AAEBB2E08AEB92E01192FF
:100FE0001D928E179F07D9F786E00E947E08DF9139
:100FF000CF910C942F058F929F92AF92BF92CF9278
:10100000DF92EF92FF920F931F93CF93DF9383E6CC
:10101000A82E81E0B82EC4EBD2E099E6E92E91E04B
:10102000F92E912C01E010E06501F5018081F89422
:10103000E82FE295EF70F0E021A18F70A80102C0C7
:10104000440F551F8A95E2F7CA01922F982B91A35E
:1010500092A18095892382A378940E94B107EDE53F
:10106000F1E020E030E0812C4191A42FA295AF70F7
:10107000B0E090968C9190E04F7002C09595879566
:101080004A95E2F780FD07C0802F022E01C0880F2D
:101090000A94EAF701C080E0882A2F5F3F4F26308C
:1010A000310511F75FEFA51AB50AF60180810E949C
:1010B000BE078881881619F0888281E001C080E02F
:1010C000982A2196EA14FB0409F0AECF292D46E0B8
:1010D0006AEB72E084EB92E00E947F080E94370581
:1010E000892DDF91CF911F910F91FF90EF90DF90AD
:1010F000CF90BF90AF909F908F9008950895FF92EA
:101100000F931F93CF93DF938C01F62ED72FC42F0D
:10111000222349F081E08093C8010E940C20909323
:10112000C7018093C6018091C8018823C1F08091D6
:10113000C6019091C7010E941820069780F0EF2DFC
:10114000FD2FD8014C2F50E0CD01801B910B84174F
:1011500095071CF48D918193F7CF1092C801DF9110
:10116000CF911F910F91FF900895EF92FF920F93EF
:101170001F93CF93DF938B01682F11110AC0442373
:1011800029F0E82FF0E0E254F94F6491762F862F92
:1011900075C0212F30E0E82FF0E0442321F0E25425
:1011A000F94FE491F0E046E0049FC0011124CFEF35
:1011B000D0E0BE010E948D2B4BEA4603C001479F41
:1011C000900D1124800F911D800F911D982F990F64
:1011D000890FAE01421B530B4E9FD0014F9FB00DA4
:1011E0005E9FB00D11249B2F189FA0011124452F45
:1011F00055278E01041B150B0E9FA0010F9F500D4C
:101200001E9F500D11247E01E81AF108E29E800114
:10121000E39E100DF29E100D1124212F3327C21BC7
:10122000D30BCE9F9001CF9F300DDE9F300D112448
:1012300062307105A9F048F46115710569F06130FB
:101240007105C9F48B2F752F0DC06430710581F0C5
:1012500058F06630710579F47E2F8B2F932F0DC0D7
:10126000832F7B2F9E2F09C08E2F7B2F952F05C09C
:101270008E2F732F02C07E2F852F692FDF91CF9184
:101280001F910F91FF90EF90089541E00E94B508E3
:10129000089508950E9445090895CF93DF93762F0E
:1012A000E901682F842F0E944A09798368838A8321
:1012B000DF91CF9108958091C002282F269530E0CC
:1012C0002115310519F48170826005C02B3231057A
:1012D00024F0817084658093C002089588E090E0D6
:1012E0000C947F2CCF92DF92EF92FF926B017C01E6
:1012F0000E945B09B701A60188E090E0FF90EF90A3
:10130000DF90CF900C949D2CE0ECF2E083E08083A2
:1013100011828FEF82838383148260817181828145
:1013200093810C9472098091C00280FF02C086955F
:10133000089580E008959091C402933018F49F5F5F
:101340009093C402882351F06091C0027091C10251
:101350008091C2029091C3020C947209089581E0B9
:101360000C949B099091C402992319F09150909389
:10137000C402882351F06091C0027091C102809133
:10138000C2029091C3020C947209089581E00C94FA
:10139000B20970E00C942E10609108018091C00297
:1013A00080FF0AC08091070123E0829FC0011124C1
:1013B0008B539D4F0C94C9098091090190910A01AA
:1013C000891780F7E82FF0E09F01220F331FE20F0B
:1013D000F31FEB53FD4F1182108212828F5FF0CF0B
:1013E0009091C00290FF16C09091090120910A01CE
:1013F000921770F4E92FF0E0DF01AA0FBB1FEA0F8C
:10140000FB1FEB53FD4F8183608342839F5FF0CFCF
:101410000C94CC090895CF93DF9300D01F92CDB7E1
:10142000DEB79091C00290FF0AC09E012F5F3F4F30
:101430000E944D094B8169818A810E94F0090F90B9
:101440000F900F90DF91CF910895CF93DF93EC0130
:10145000EC81F0E0E754FA4F4491E0ECF2E0628175
:1014600081810E940B0A8C818F5F8C83DF91CF91E9
:101470000895CF93DF93EC01E0ECF2E043816281C9
:101480008C810E940B0A8C818F5F8C83DF91CF91BE
:1014900008950F931F93CF93DF9300D01F92CDB782
:1014A000DEB78C018091C90181110AC09E012F5FB6
:1014B0003F4F4FEF6FEF0E944D098A818093C90122
:1014C000F8018481813051F028F0823061F440913C
:1014D000C9010AC08091C90140E007C06091C901FB
:1014E00040E080E003C040E080E060E00E94F0095E
:1014F000F801848190E0019663E070E00E94A12BE6
:1015000084830F900F900F90DF91CF911F910F91D7
:101510000895AF92BF92CF92DF92EF92FF920F9316
:101520001F93CF93DF9300D01F92CDB7DEB7182F54
:10153000F62E042FE22E9091C00290FF6DC0E92F8D
:10154000E695AE2FB0E0A759BE4F8C918093F10184
:101550009E7F923061F49E012F5F3F4F812F0E944A
:101560004D094B8169818A810E94F00943C0823014
:1015700019F40091C3023EC0863019F41091C102E3
:1015800039C08930D9F38931A9F5E9518E2F81709D
:10159000D82EE695F0E0E754F94FA590B490C12C11
:1015A000BB2460910B01C61618F52C2D30E0A29ECD
:1015B000C001A39E900DB29E900D112470E00E9478
:1015C0008D2B812FD11002C0860F01C0861B9091F8
:1015D0000901290F311DA901440F551F240F351F83
:1015E0002B533D4F402F6F2D0E944D09C394D9CFEF
:1015F0000E94CC091093C102F092C2020093C30270
:10160000EE2051F06091C0027091C1028091C2023F
:101610009091C3020E9472090F900F900F90DF917A
:10162000CF911F910F91FF90EF90DF90CF90BF90DF
:10163000AF900895E0ECF2E09181282F4381628120
:1016400088E0890F0C94890A81E00C941A0BE0EC75
:10165000F2E09181282F4381628188EF890F0C94F9
:10166000890A81E00C94270BE0ECF2E0628128E02B
:10167000620F08F46FEF282F438181810C94890A4F
:1016800081E00C94340BE0ECF2E0628128E0621B14
:1016900008F460E0282F438181810C94890A81E05D
:1016A0000C94430BE0ECF2E0438128E0420F08F495
:1016B0004FEF282F628181810C94890A81E00C947C
:1016C000520BE0ECF2E0438128E0421B08F440E0DA
:1016D000282F628181810C94890A81E00C94610B2E
:1016E00020E00C94890AFF920F931F93CF93DF930E
:1016F000EC01F12C0FEF10E060910B01F616F0F405
:10170000809109012F2D30E0280F311DC901880F6C
:10171000991F280F391F2B533D4F70E0C8010E94BD
:10172000A12B962F8C814091C3026091C202F99E39
:10173000800D11240E944D09F394DECF0E94CC0944
:101740009A818C8190FF02C08F5F01C081508C8391
:10175000DF91CF911F910F91FF900895AF92BF92AB
:10176000CF92DF92EF92FF920F931F93CF93DF936D
:10177000FC01828180FF02C00FEF01C001E010E098
:1017800046E0A42E80910B01181708F043C0809109
:101790000901C12ED12CE601C80FD11DCE01880F41
:1017A000991FC80FD91FCB53DD4F198218821A8297
:1017B00034E0E32EF12CB12C8091CB018B0D8730DE
:1017C0002CF06A2D0E947F2B892F05C087FF03C054
:1017D00090910B01890F082E000C990BC816D906A1
:1017E00091F48091C3028E9DA0018F9D500D112414
:1017F00055954795559547959E016091C2028091F8
:10180000C1020E944D09B00EF1E0EF1AF108A1F6F5
:101810001F5FB8CF0E94CC098091CB01013031F419
:10182000811102C080910B01815007C090E00196A8
:1018300060910B0170E00E94A12B8093CB01DF919E
:10184000CF911F910F91FF90EF90DF90CF90BF90BD
:10185000AF900895CF938091090190910A01891763
:1018600070F4E82FF0E09F01220F331FE20FF31F07
:10187000EB53FD4F1182108212828F5FF0CFC0E0D8
:1018800060910B01C617C0F5EC2FF0E070E0CF01BE
:101890000E94A12B20910901820F2091CA01022EE2
:1018A000000C330B90E0E217F307CCF02091060117
:1018B000022E000C330B2E173F078CF09C01220FD9
:1018C000331F820F931F9C012B533D4F4091C30246
:1018D0006091C2028091C1020E944D090BC0FC01BF
:1018E000EE0FFF1F8E0F9F1FFC01EB53FD4F118268
:1018F00010821282CF5FC4CF0E94CC0920910501D3
:101900008091CA01820F8093CA0190910601920FC3
:101910009093060119165CF4082E000C990B409167
:101920000B0150E041505109841795071CF0219597
:1019300020930501CF9108958F929F92AF92BF920D
:10194000CF92DF92EF92FF920F931F93CF93DF938B
:101950008C01FC014481C42FD0E09E01DE010E9475
:10196000E52B9B01AC010E94FB2B6B017C01E0E2AB
:10197000F0E0EC1BFD0BA5E5B0E09B01AC010E9483
:10198000FB2B4B015C019F01DF010E94DD2B9B01C2
:10199000AC010E94062C9B01AC012C0D3D1D4E1D7F
:1019A0005F1DC501B4010E94B52BC22FD22F2A3270
:1019B00028F4F3E02F9F900111240DC025E530E0BD
:1019C0002C1B3109C901880F991F280F391F37FFB8
:1019D00002C02F5F3F4F35952795C22FC095F12C40
:1019E00085E5E82EED1A80910B01F816C8F4F1FC9C
:1019F00002C08E2D01C08D2F909109012F2D30E056
:101A0000290F311DA901440F551F240F351F2B53DA
:101A10003D4F4C2F6091C2020E944D09F394E3CFD9
:101A20000E94CC09F8018481811102C091E003C0B9
:101A3000803219F49FEF9093040190910401890F73
:101A4000F8018483DF91CF911F910F91FF90EF9068
:101A5000DF90CF90BF90AF909F908F9008950F939D
:101A60001F93CF93DF93EC0100E010E080910B0116
:101A7000282F30E00217130724F5909109019801EF
:101A8000290F311DA901440F551F240F351F2B535A
:101A90003D4F869590E04C81081719071CF44423AC
:101AA00031F002C0411103C04091C30201C040E0C7
:101AB0006091C2028091C1020E944D090F5F1F4FC9
:101AC000D5CF0E94CC098C8190E001968170992736
:101AD0008C83DF91CF911F910F9108958F929F92E8
:101AE000AF92BF92CF92DF92EF92FF920F931F932C
:101AF000CF93DF93FC01B280948081E0848300E087
:101B000015E05BE4A52E88248394EE24EA94F12C5E
:101B10007BE4C72ED12C80910B01081708F08FC0F1
:101B2000C02FD0E01C9FF0011D9FF00D1124E45345
:101B3000FE4F911003C01382128267C023812223BB
:101B400089F1215023833481332319F09A2D921B7C
:101B500001C0922F8091C3021C9FF0011D9FF00DC8
:101B60001124E453FE4F899FC0011124B6010E9445
:101B70008D2B6283211104C0332311F01482A382C0
:101B800022E02B1508F441C01C9FF0011D9FF00DB1
:101B90001124E453FE4F8091C10280838091C202E0
:101BA000818333C00E945A2C8230914074F582E0C8
:101BB0008B1530F40E945A2CB7010E94A12B02C051
:101BC0008091C1021C9FF0011D9FF00D1124E45370
:101BD000FE4F808322E02B1558F40E945A2C20914E
:101BE000C2022695622F70E00E94A12B820F02C0D4
:101BF0008091C2021C9FF0011D9FF00D1124E4533F
:101C0000FE4F81831282A3828482809109019E010A
:101C1000280F311DC901880F991F280F391F2B5319
:101C20003D4F1C9FF0011D9FF00D1124E453FE4F0A
:101C30004281618180810E944D090F5F6CCFDF91ED
:101C4000CF911F910F91FF90EF90DF90CF90BF90B9
:101C5000AF909F908F900C94CC09E0ECF2E08081E3
:101C60008E7F808360817181828193810E9472095D
:101C70001092F2012FEF80E792E0215080409040D7
:101C8000E1F700C000000C94CC096091C002669599
:101C900070E04BE050E08CE091E00E946A2C892BD0
:101CA00019F481E08093F2010E940C209093EB01E3
:101CB0008093EA0108959091C00290FF35C0917021
:101CC000811102C0926006C08B3210F0946502C090
:101CD000880F982B9093C002662351F06091C00248
:101CE0007091C1028091C2029091C3020E94720958
:101CF0006091C002669570E04BE050E08CE091E0AE
:101D00000E946A2C892B19F01092F20102C00E94E5
:101D1000450E81E08093ED014091C3026091C202C3
:101D20008091C1020C94700B0895682F9091C002AD
:101D3000969581E0890F8B3208F081E00C945B0E60
:101D400081E00C94950E682F9091C00296958FEFCC
:101D5000890F09F48AE20C945B0E81E00C94A30EC7
:101D600061E00C945B0EE0ECF2E0808181608083A6
:101D700086950C94B00E8091C00280FD0C942D0EBF
:101D80000C94B30E60E00C945B0E8091F001811115
:101D90002EC00E940D1E811104C00E94BE1E0E9412
:101DA00084090E946E096093C0027093C1028093FF
:101DB000C2029093C3026E7F61F40E9484090E9464
:101DC0006E096093C0027093C1028093C202909327
:101DD000C3020E945B091092F2018091C00280FF51
:101DE00003C086950E94C20E81E08093F0010895A1
:101DF0000F931F93CF93DF938091F201882309F40F
:101E00009CC08091F101E091C002E695E81BE0934F
:101E1000EC01823049F4F0E0EB54FA4FE491CE2F1C
:101E2000D0E005E21AE059C0863049F4F0E0EE5403
:101E3000FA4FE491CE2FD0E009E31AE04EC089308A
:101E400051F4E695F0E0E155FA4FE491CE2FD0E061
:101E500003E71BE042C08F3051F4E695F0E0E45513
:101E6000FA4FE491CE2FD0E00EEA1BE036C0853168
:101E700049F4F0E0E755FA4FE491CE2FD0E00AE2C2
:101E80001CE02BC08831D9F0833239F4E7EAF5E061
:101E9000C591D49109E41AE020C08432A9F08532BA
:101EA000C1F48E2F63E00E94732BE92FF0E0EC5514
:101EB000FA4FE491CE2FD0E00EE61DE00EC0C8E24E
:101EC000D0E00CE91CE009C0C4EFD1E00FE21DE056
:101ED00004C0C0EDD7E009E419E08091ED0188234A
:101EE00089F01092ED010E940C209E012095309502
:101EF000820F931F9093EB018093EA011092EF0100
:101F00001092EE018091EA019091EB010E9418205D
:101F10008C179D0790F0E091EA01F091EB01CE0F54
:101F2000DF1FD093EB01C093EA018AEE91E0F80144
:101F3000DF91CF911F910F910994DF91CF911F9164
:101F40000F910895882311F0FA0101C0FB01099453
:101F5000CF93DF93C82FD62F0E9493098C1740F0A0
:101F60000E9493098D1720F4DF91CF910C94A00E5D
:101F70008C2FDF91CF910C94B00E0F931F93CF93C2
:101F8000FB01C281CC2309F463C08C010E945C1D5B
:101F90008272F801E35CFC45E431F10508F059C0B8
:101FA000EA5AFF4F0C94D72B0E94BB0E06C04DEA95
:101FB0005EE060EA7EE00E94A20FC0E04AC040EA14
:101FC0005EE06DEA7EE0F7CF41E35BE064E27BE058
:101FD000F2CF44E25BE061E37BE0EDCF4FE45BE016
:101FE00060E47BE0E8CF40E45BE06FE47BE0E3CFDC
:101FF0004DE65BE06EE57BE0DECF4EE55BE06DE657
:102000007BE0D9CF46EC59E06FEA79E0D4CF4FEAD4
:1020100059E066EC79E0CFCF81E017C065E082E05F
:1020200010C068E086E00DC06EE089E00AC064E19F
:102030008FE007C067E185E104C088E106C062E285
:1020400089E10E94A80FB9CF83E20E94B00EB5CFFC
:10205000C1E08C2FCF911F910F910895539A2BB10E
:10206000277F3BB138604FB7F894FC01CB01880F54
:10207000991F680F791F6E0F7F1FE617F70789F00A
:10208000819198E03BB9000000C087FF2BB9880F11
:10209000000000C000C000C02BB900C09A9591F7A5
:1020A000ECCF4FBF8FE594E00197F1F700C000003F
:1020B00008950F931F93CF93DF93C42FD22FFC016A
:1020C00082818823C9F04093F5010E940C209093EF
:1020D000F4018093F30180E28C0F883008F057C040
:1020E000C77081E001C0880FCA95EAF7DF91CF91F0
:1020F0001F910F910C94FE148091F501481330C08C
:102100008091F3019091F4010E941820883C910580
:1021100038F510E21D0FCD17B9F080E28C0F883032
:1021200040F4C77081E001C0880FCA95EAF70E94A9
:102130000515183028F581E09D2F977001C0880F94
:102140009A95EAF70E94FE14802F0E94EB14183033
:10215000F0F4D77081E001C0880FDA95EAF70AC081
:1021600080E28C0F883098F4C77081E001C0880F3E
:10217000CA95EAF7DF91CF911F910F910C94051545
:10218000802FDF91CF911F910F910C94EB14DF9171
:10219000CF911F910F9108950F939C01CB01243F84
:1021A0004CE5340731F188F4293DFCE53F07D9F0CF
:1021B0002A3D4CE5340779F1283D3C45A9F506E276
:1021C00021EE41EE68ED7CE52BC0263FFCE53F07A4
:1021D000E1F0A8F0273F3C4539F507E225EE46EE51
:1021E00067EF7CE51DC007E225EE45EE69ED7CE575
:1021F00017C006E221EE40EE64EF7CE511C007E275
:1022000025EE44EE65EF7CE50BC006E221EE42EEE2
:1022100066EF7CE505C008E221E045EE6AED7CE56D
:102220000E94591080E008C0FC018281882319F0C7
:102230001092F50101C081E00F910895CF93DF93D3
:10224000EC01FB018281882309F41FC1C230FCE547
:10225000DF0708F41BC1C6319CE5D90738F09E01A1
:102260002B5F3C452930310508F010C10E942A1E21
:102270009093DC028093DB02C031ECE5DE0709F4C9
:10228000C3C008F041C0C8308CE5D80709F49AC033
:10229000F0F4C430ECE5DE0709F487C068F4C2301E
:1022A0008CE5D80709F477C0C330DC4509F0E3C0FA
:1022B0008091DB02826076C0C630ECE5DE0709F46F
:1022C0006EC008F07BC08091DB0288606BC0CC30B0
:1022D0008CE5D80709F485C068F4CA30ECE5DE0760
:1022E00009F474C008F079C00E948E178091DB0257
:1022F000806858C0CE308CE5D80709F476C008F065
:102300007FC08091DB028BC0CC3FECE5DE0709F497
:102310004FC018F5C3318CE5D80709F47DC078F4B7
:10232000C131ECE5DE0709F473C0C231DC4509F0C8
:10233000A2C00E948E178091DB028F7733C0C53117
:102340008CE5D80709F472C008F486C0CB3FDC45A1
:1023500009F091C08091DC023EC0C115FDE5DF07A8
:1023600009F45FC058F4CE3F9CE5D90709F444C096
:1023700008F43FC08091DC0282602DC0C230FDE5D0
:10238000DF0709F475C008F45DC0C330DD4509F00E
:1023900072C080E06EC08091DB02816003C08091DA
:1023A000DB0280618093DB0266C08091DB0211C09A
:1023B0008091DC0282608093DC025DC08091DB0250
:1023C0008062F0CF8091DB028064ECCF8091DB02F1
:1023D00088608460E7CF8160EECF8091DB028E7FE2
:1023E000E1CF8091DB028D7FDDCF8091DB02877FA3
:1023F000D9CF8091DC0218C08091DC028D7FDBCFC9
:102400008091DB028F7ECECF8091DB028F7DCACFA1
:102410008091DB028F7BC6CF8091DB02877F8B7F31
:10242000C1CF8091DC028D7F8E7FC5CF8091DB0292
:1024300082FB222720F991E0922790FB82F990FB02
:1024400083F9B0CF8091DC02982F909591708E7FA8
:10245000892B90FB81F9AFCF0E948E178091DB0210
:1024600087FB222720F991E0922790FB87F99ACFEA
:1024700081E00E94C01E8091DB029091DC020E94EC
:102480003B1E0E948E1780E001C081E0DF91CF915A
:102490000895CF93DF9386319C4541F5EB010E946F
:1024A0005C1D982F8A812091170130911801882393
:1024B00079F09A7A81E009F480E08093F601911135
:1024C00002C069E201C065E3C9010E945B1F0AC046
:1024D0008091F601811102C069E201C065E3C90182
:1024E0000E94661F0E94AA1D80E001C081E0DF916A
:1024F000CF9108959093FC018093FB010895E091A2
:10250000FB01F091FC01309721F00190F081E02D6A
:10251000099480E00895E091FB01F091FC0130976F
:1025200099F020912B01222359F02091DB0227FF03
:1025300007C0DC012C9111962C93119725E02C9368
:102540000280F381E02D09940895E091FB01F09160
:10255000FC01309739F022E0DC012C930480F581F6
:10256000E02D099408952091F9013091FA0128177E
:10257000390771F09093FA018093F901E091FB0122
:10258000F091FC01309721F00680F781E02D09944D
:1025900008952091F7013091F8012817390771F05B
:1025A0009093F8018093F701E091FB01F091FC0119
:1025B000309721F00084F185E02D0994089585B7C6
:1025C000806885BF85B7806885BF089581E00895DC
:1025D0000C94E61208950C94EA120C94EA120C94EE
:1025E000ED120C94EA120C94F1120C94EA120E946F
:1025F000DF120E94F5120C94F3120E9403200E9435
:10260000D5070E94B5200E94C50E0C94EF12AF9220
:10261000BF92CF92DF92EF92FF920F931F93CF93CF
:10262000DF93CDB7DEB72A970FB6F894DEBF0FBEA3
:10263000CDBF0E94EB120E94EA120E94FB070E948B
:10264000E812811111C08FEF89838A831B820E9457
:102650000C208160782F9D838C8349815A816B8106
:102660008D810E94A51340C08EEFA82E81E0B82E68
:1026700000E010E0C02E802F0E94AA07E82EF5018E
:10268000D1905F01D82631F40F5F1F4F063011053E
:1026900089F7D9CF8091830281FD0E94B00780E045
:1026A000FF24F3949D2D9F21D1F08E83CF82EF20C4
:1026B00081E009F480E088870E940C208160782FF7
:1026C0009A8789874E815F8168858A850E94A513D4
:1026D000F801E250FE4F8081F826F08205C08F5F3E
:1026E000FF0C8630F9F6D0CF0E94F80E0E948623A8
:1026F0000E947F129091FD018917B1F00E947F1214
:102700008093FD012A960FB6F894DEBF0FBECDBFB1
:10271000DF91CF911F910F91FF90EF90DF90CF90BD
:10272000BF90AF900C9493052A960FB6F894DEBF35
:102730000FBECDBFDF91CF911F910F91FF90EF9012
:10274000DF90CF90BF90AF900895CF93DF93CDB738
:10275000DEB72B970FB6F894DEBF0FBECDBF4F8309
:10276000588769877A878B87DE01119686E0FD019D
:1027700011928A95E9F785E0FE01379601900D9256
:102780008A95E1F749815A816B817C818D819E8197
:102790000E94471A2B960FB6F894DEBF0FBECDBF2E
:1027A000DF91CF910895FC01808191810E941D1DD0
:1027B0000895CF93882309F4A4C0C82F8238C1F4A8
:1027C0000E947F1281FD9DC069E380911701909165
:1027D00018010E945B1F0E94AA1D2FEF81EE94E05A
:1027E000215080409040E1F700C0000069E319C02B
:1027F000833801F50E947F1280FD83C063E58091DC
:102800001701909118010E945B1F0E94AA1D2FEFD3
:1028100081EE94E0215080409040E1F700C000003C
:1028200063E580911701909118010E94661FCF9176
:102830000C94AA1D8438C1F40E947F1282FD61C0ED
:1028400067E480911701909118010E945B1F0E941C
:10285000AA1D2FEF81EE94E0215080409040E1F7D7
:1028600000C0000067E4DDCF8CEF8C0F813AD0F41C
:102870006C2F80911701909118010E94DB1E882314
:1028800049F06C2F80911701909118010E94661FEA
:102890000E94AA1D6C2F80911701909118010E942F
:1028A0005B1FC5CF80E28C0F883048F4C77081E091
:1028B00001C0880FCA95EAF70E945F1DB8CFEBE50B
:1028C000EC0FE33040F4F0E0EE53FE4F808190E0F7
:1028D000CF910C94B312E8E5EC0FE73150F4F0E03F
:1028E000EE0FFF1FEC56FE4F80819181CF910C942B
:1028F000C912C03F30F08C2F0E947B22CF910C94E4
:102900006823CF910895882309F464C0823879F44C
:102910000E947F1281FF5EC069E380911701909150
:1029200018010E945B1F0E94AA1D69E310C0833832
:10293000B1F40E947F1280FF4DC063E580911701C2
:10294000909118010E945B1F0E94AA1D63E580916F
:102950001701909118010E94661F0C94AA1D8438DB
:1029600079F40E947F1282FF35C067E480911701DD
:10297000909118010E945B1F0E94AA1D67E4E7CF97
:102980009CEF980F913A10F4682FE1CF90E2980FE6
:10299000983050F4877091E001C0990F8A95EAF75A
:1029A000892F0E94651DD9CF9BE5980F933020F4A5
:1029B00080E090E00C94B31298E5980F973120F4E2
:1029C00080E090E00C94C912803F20F00E94E32246
:1029D0000C9468230895CF93C82F0E94D913C9334C
:1029E00049F42FEF87EE93E0215080409040E1F7CB
:1029F00000C000008C2FCF910C948314882321F009
:102A00000E945F1D0C94AA1D0895882321F00E9446
:102A1000651D0C94AA1D0895CF92DF92EF92FF924C
:102A20000F931F93CF93DF937C01062FC72FFC01D9
:102A3000158112951F70D281D1110E947C1D0E94B8
:102A4000551D882399F0DD2389F08C2F807F8034F9
:102A500021F080E2800F883048F082E00E94F41D6F
:102A60000E94551D91E0D82ED92601C0D12CCC2E24
:102A7000C2948FE0C8228C2D90E0FC01E659FF4FF4
:102A80000C94D72B8C2F807FCF70882311F0C295A8
:102A9000C07FDD2399F0CC2309F48DC180E2800F43
:102AA000883010F0011104C08C2F0E945F1D03C0FC
:102AB0008C2F0E946F1D0E94AA1D7DC1802F0E9435
:102AC0008314CC2309F49CC180E2800F883010F07D
:102AD000011104C08C2F0E94651D03C08C2F0E9421
:102AE000751D0E94AA1D8CC18C2F807FCF708032F3
:102AF00011F0C295C07F002319F00130C9F022C047
:102B0000DD2371F0112341F0113031F40E948F1D4B
:102B10008C2B0E94971D74C10E948F1D8C2B1DC091
:102B2000112319F0113009F46BC10E94A01D25C0BA
:102B3000DD2321F0163008F063C10EC0153008F017
:102B40005FC11BC0DD2361F0112331F0F7018581E6
:102B500080FF31C18F7085838C2F0E94FE1450C17D
:102B6000112359F0093309F037C1FFEF27EE83E055
:102B7000F15020408040E1F72DC18C2F0E940515B7
:102B80003FC18C2F86958695837019F0813061F056
:102B900037C1DD2321F0802F9C2F937002C080E08D
:102BA00090E00E94B31234C1DD2321F0802F9C2FCE
:102BB000937002C080E090E00E94C91229C1802F6A
:102BC000DD2319F00E947B2202C00E94E3220E94B2
:102BD00068231EC18C2F837009F045C0D11114C128
:102BE000402F429546954770440F440F602F6F70F9
:102BF000862F90E0A0E0B0E0042E04C0880F991F5B
:102C0000AA1FBB1F0A94D2F704FF10C00FE010E008
:102C100020E030E004C0000F111F221F331F4A952F
:102C2000D2F7009510952095309503C000E010E094
:102C30009801C695C695C370BC01CD01602B712B60
:102C4000822B932BC23049F058F4C13019F00E9406
:102C5000981BDAC00E94861BD7C00E94AA1BD4C052
:102C60000E94841BD1C0DD2319F08C2F817001C01C
:102C70008695882309F4C8C0402F42954695477031
:102C8000440F440F602F6F70862F90E0A0E0B0E0FB
:102C9000042E04C0880F991FAA1FBB1F0A94D2F7E5
:102CA00004FF10C00FE010E020E030E004C0000F8F
:102CB000111F221F331F4A95D2F7009510952095BA
:102CC000309503C000E010E09801C695C695C3702A
:102CD000BC01CD01602B712B822B932BC23049F0AC
:102CE00058F4C13019F00E945D1C8EC00E944B1C2C
:102CF0008BC00E946F1C88C00E94BE1B85C0CF7015
:102D0000DD2339F08C2F0E94E41B802F0E94FE14DB
:102D10007BC0802F0E9405158C2F0E94051C74C05B
:102D2000023F01F128F4003F41F0013FA1F03FC014
:102D3000033FF9F0043F39F13AC0DD2341F015308B
:102D400008F05EC08C2F8F710E942A1C59C016306B
:102D500008F056C0F7CFDD2339F08C2F8F710E9419
:102D6000E41B4EC0DD23C9F38C2F8F710E94051C1C
:102D700047C0DD2329F08C2F8F710E94CF1B40C0EC
:102D80000E94CA1B3DC0DD2349F0CF718C2F0E94E9
:102D9000E41B63E08C2F0E94DF1D32C081E00E94A3
:102DA000F41D123068F182E00E94F41D29C0DD2379
:102DB00031F0112391F2802F0E94D91321C01123E9
:102DC00099F2093349F49FEFE7EEF3E09150E040C8
:102DD000F040E1F700C00000802F0E94831410C073
:102DE0004C2F4F70602FC7010E949C050E94F51A5E
:102DF0000FC04C2F4F70602FC7010E949F0508C065
:102E000088EF8C0D843020F40E947F120E9493057D
:102E1000DD20C9F00E94511D80FD15C0F70112820E
:102E20000E944B1D0E94E41BC7010E9444170E9490
:102E30004B1DDF91CF911F910F91FF90EF90DF908D
:102E4000CF900C94051CDF91CF911F910F91FF90B3
:102E5000EF90DF90CF9008950F931F93CF93DF9360
:102E6000EC01688179818A810E94281D8C010E9471
:102E7000811C0E94721BB801CE010E940C15DF91CB
:102E8000CF911F910F910895CF93DF93EC0198811B
:102E900089812B813C81232B31F08F3F31F481E0FC
:102EA0009F3F19F403C081E001C080E080FD19C09C
:102EB000CE010E94490581110CC00E94551D882336
:102EC00081F08A81882369F082E0DF91CF910C94B0
:102ED000F41DCE010E942C17CE01DF91CF910C94EE
:102EE0002405DF91CF9108950E947C1D0E948C1DC6
:102EF0000E94AA1D0E9499240E94682380E090E00D
:102F00000E94B31280E090E00C94C91280911701E6
:102F1000909118010E94711F0C9474170E946C1DEF
:102F20000C948617E92FE295EF704E2F50E0FA01CE
:102F30003297EE30F105B0F4E658FF4F0C94D72BE2
:102F4000803F91F018F4883E68F40EC0843F51F43D
:102F50000BC0883E48F0813F29F406C093FB8827C8
:102F600080F9089580E0089581E008950E941D1D74
:102F70000E9492170895CF93DF9300D000D01F9244
:102F8000CDB7DEB70F900F900F900F900F90DF919D
:102F9000CF910895CF93DF9300D000D000D0CDB76C
:102FA000DEB726960FB6F894DEBF0FBECDBFDF9119
:102FB000CF9108951F93CF93DF93C091050216E040
:102FC00080910602C81799F0D0E01C9FF0011D9F68
:102FD000F00D1124E95FFD4F4081518162817381C1
:102FE000848195810E94CA172196C770E9CFDF912D
:102FF000CF911F910895409137025091380260910E
:10300000390270913A0280913B0290913C020C94FB
:10301000CA170F931F93CF93DF9380913C02829541
:103020008F7009F05DC080913902882309F458C07F
:10303000809105021091060260913702709138026A
:10304000C0913A02D0913B0291E06F3F09F090E0CD
:10305000292F06E0811709F443C0209721F07F3F14
:1030600021F030E003C031E001C0322F90E030FDAC
:1030700034C0089FF001099FF00D1124DF01A95F02
:10308000BD4F11963C911197371327C03C913613D1
:1030900024C012963C91129731111FC013964D9186
:1030A0005C9114974C1B5D0B483C5105B0F480912A
:1030B0003C028F70806180933C02E45FFD4F808111
:1030C0008F708061808387E392E00E944417DF91D4
:1030D000CF911F910F910C94DA1701968770BACF98
:1030E000DF91CF911F910F9108959F92AF92BF9260
:1030F000CF92DF92EF92FF920F931F93CF93DF93C4
:10310000CDB7DEB761970FB6F894DEBF0FBECDBF67
:103110008C0185E0F801DE011D9601900D928A95E3
:10312000E1F7F80140815181E2809091370260918E
:10313000380220913A0230913B022115310531F0DD
:103140006F3F31F481E09F3F19F403C081E001C07B
:1031500080E0F82FF1709F2E80FD46C1F801A3801A
:10316000B48087E3C82E82E0D82EF0903902F501B2
:10317000E21BF30BFF2009F4DFC080913C02E83C26
:10318000F10508F09BC0282F207F09F052C056138C
:1031900013C0491311C0FE2CE1100EC08F70806166
:1031A00080933C020E94FB17C6010E944417809145
:1031B0003C02F801858358C1AB2831F05F3F31F400
:1031C00081E04F3F19F403C081E001C080E080FD41
:1031D00003C081E08E2502C080E090E0F82FF170FE
:1031E000FF2E80FF1CC0809105022091060236E070
:1031F000821709F417C190E0389FF001399FF00D54
:103200001124E95FFD4F6181561306C060814613AA
:1032100003C06281E61203C001968770E9CFFE2CDD
:10322000EE2009F421C180913C02816080933C0230
:103230005AC0561306C0491304C0E11002C0F80179
:103240009FC04D875E878D859E850E94B617882317
:1032500079F1EE2069F120913C02822F82958F70E6
:1032600090E0029774F0809137029091380298872D
:103270008F831986BB86AA862C87CE0107960E946B
:10328000441786E0F801A7E3B2E001900D928A9519
:10329000E1F70E9409180E94FB170DC0561729F18B
:1032A0004D875E878D859E850E94B61781112CC043
:1032B000C8010E944417FF24F394D6C0282F207F12
:1032C00069F77A2DB98AA88A6E2D89890E94BB1761
:1032D00087E392E00E94441786E0F60111928A95F6
:1032E000E9F70E94FB17F12CBFC04913D9CFE110B9
:1032F000D7CFF8018583C8010E94441786E0F60104
:1033000011928A95E9F7B0C0EE2091F220913C022B
:10331000822F82958F7090E002970CF4B2CF80914B
:103320003702909138029A8389831B82BD82AC82D6
:103330002E83CE010196A3CFE83CF10508F047C0EB
:10334000FE2CEE2009F4B4CF561330C049132EC022
:1033500020913C0220FD21C0822F82958F70482F42
:1033600050E041155105C9F0F80125834F30510552
:1033700041F08F5F982F9295907F822F8F70892BCD
:103380008583C8010E94441786E0F801A7E3B2E0F4
:1033900001900D928A95E1F742C086E0F801A7E31B
:1033A000B2E001900D928A95E1F75EC04D875E878D
:1033B0008D859E850E94B617811163CF80913C0256
:1033C000816080933C02C8010E9444174DC07A2D51
:1033D000B98AA88A6E2D89890E94BB1786E0F601FA
:1033E00011928A95E9F71BC0EE2009F461CF4D8751
:1033F0005E878D859E850E94B617F82E882309F476
:1034000057CF86E0F801A7E3B2E001900D928A95CC
:10341000E1F787E392E00E94D3130E9409180E940B
:10342000FB1722C04D875E878D859E850E941D1DDE
:10343000292F22952F70223028F49F7039F08111A6
:1034400005C00BC0243028F49F7049F4805E88309A
:1034500020F0C8010E9444179F2CF92C05C0F801E8
:103460009581907F99F7F9CF8F2D61960FB6F894DB
:10347000DEBF0FBECDBFDF91CF911F910F91FF90A7
:10348000EF90DF90CF90BF90AF909F9008951F93E3
:10349000CF93DF93CDB7DEB72C970FB6F894DEBF8E
:1034A0000FBECDBF4F83588769877A878B879C87EC
:1034B000CE0107960E9475188823D1F09F818885D8
:1034C0002A853B85232B31F08F3F31F481E09F3FEC
:1034D00019F403C081E001C080E080FD47C04F8146
:1034E000588569857A858B859C850E94CA173EC060
:1034F00086E0FE013796DE01119601900D928A95C5
:10350000E1F7FF81E8856A857B856115710531F0FA
:10351000EF3F31F481E0FF3F19F403C081E001C0C7
:1035200080E080FD23C02091060230E0C9010196B1
:10353000877099274091050250E084179507F1F1B3
:10354000F983EA837D836C8396E0929FD001939FF9
:10355000B00D1124A95FBD4FFE01319601900D926F
:103560009A95E1F7809306020E94DA1716E080919F
:10357000050290910602891771F1189FC00111246C
:10358000895F9D4F0E947518882329F1E0910502FB
:103590001E9FF0011124E95FFD4F4081518162813E
:1035A0007381848195810E94CA178091050290E001
:1035B00001968770992780930502D9CF0E948E17B4
:1035C0001092060210920502E7E3F2E086E0DF01C6
:1035D0001D928A95E9F72C960FB6F894DEBF0FBEC0
:1035E000CDBFDF91CF911F910895EF92FF920F937E
:1035F0001F93CF93DF938C01892B09F46CC0F12CBE
:10360000EE24E394E8012196F8018491843740F494
:10361000843008F051C0813081F0823019F15BC0F4
:10362000853709F444C0A8F19CE7980F903708F05B
:1036300052C08F770E94831441C00E5F1F4FFE015E
:10364000849190E2980F983050F48770FE2D01C05D
:10365000FF0F8A95EAF78F2F0E947F1D14C00E94EA
:10366000D9132DC00E5F1F4FFE01849190E2980F79
:10367000983060F48770FE2D01C0FF0F8A95EAF73D
:103680008F2F0E94851D0E94AA1D19C00E948314BD
:1036900016C00E5F1F4FFE01C491CC2381F08FE94D
:1036A0009FE00197F1F700C00000C150F6CF0E5F18
:1036B0001F4FFE01F49003C00E94D9138E018F2D7D
:1036C000882309F49FCFEFE9FFE03197F1F700C0BD
:1036D00000008150F5CFDF91CF911F910F91FF90A6
:1036E000EF900895089508950C94731B0C94741B27
:1036F0000E94761B60935A0270935B0280935C0277
:1037000090935D020C9474170C94781B0F931F9385
:1037100000915A0210915B0220915C0230915D028F
:10372000602B712B822B932B1F910F910C94781B84
:103730000F931F9300915A0210915B0220915C023B
:1037400030915D0260237123822393231F910F9197
:103750000C94781B0F931F9300915A0210915B02F7
:1037600020915C0230915D026027712782279327A8
:103770001F910F910C94781B0C94731B0E94BC1B1F
:1037800060935602709357028093580290935902A7
:103790000C94741760E070E0CB010C94BE1B0F9387
:1037A0001F9341E050E060E070E08A019B0104C09B
:1037B000000F111F221F331F8A95D2F7C901B801CC
:1037C0001F910F910C94BE1B0F931F9341E050E08B
:1037D00060E070E004C0440F551F661F771F8A9594
:1037E000D2F78091560290915702A0915802B09161
:1037F00059028A019B01082B192B2A2B3B2BC9014B
:10380000B8011F910F910C94BE1B0F931F9341E0C1
:1038100050E060E070E004C0440F551F661F771F42
:103820008A95D2F740955095609570958091560293
:1038300090915702A0915802B09159028A019B01C0
:10384000082319232A233B23C901B8011F910F9193
:103850000C94BE1B0F931F9341E050E060E070E0BA
:1038600004C0440F551F661F771F8A95D2F78091B9
:10387000560290915702A0915802B09159028A01C4
:103880009B01082719272A273B27C901B8011F9147
:103890000F910C94BE1B0F931F9300915602109131
:1038A00057022091580230915902602B712B822BC4
:1038B000932B1F910F910C94BE1B0F931F9300919C
:1038C00056021091570220915802309159026023FC
:1038D0007123822393231F910F910C94BE1B0F938E
:1038E0001F93009156021091570220915802309177
:1038F000590260277127822793271F910F910C94FB
:10390000BE1B0895292F220F920F990F890FE82FC0
:10391000E695E695E695877051E001C0550F8A95CA
:10392000EAF785E0E89FF0011124E35CFD4F20E019
:1039300030E070E04081CB01022E02C09695879561
:103940000A94E2F7817081958427852384278193E7
:103950002F5F3F4F2530310569F70895292F220F3A
:10396000920F990F890F682F669566956695982F27
:10397000977085E0689FB001112440E050E080E03E
:10398000FB01E40FF51FE35CFD4F208130E0092EC1
:1039900002C0369527950A94E2F721703327042E4A
:1039A00001C0220F0A94EAF7822B4F5F5F4F453028
:1039B000510531F70895BF92CF92DF92EF92FF92B7
:1039C0000F931F93CF93DF938C01C0905602D0903A
:1039D0005702E0905802F090590280915A0290915B
:1039E0005B02A0915C02B0915D02C82AD92AEA2A42
:1039F000FB2ACFE1D0E0D701C6010C2E04C0B6955A
:103A0000A795979587950A94D2F780FD04C02197D2
:103A100090F7B12C07C0BC2EB8018C2F0E94BB05BB
:103A20000197A9F38B2DDF91CF911F910F91FF90FB
:103A3000EF90DF90CF90BF900895CF93DF93EC018C
:103A40000E94DB1CBE010E94BB05DF91CF9108954F
:103A50001F93CF93DF93EB0190910402992321F000
:103A6000CB010E941D1D13C0882349F0CB010E9489
:103A7000DB1C182F682FCE010E94821C04C0CB01D2
:103A80000E94AE1C182FBE01812F0E94BB05DF9142
:103A9000CF911F91089580915E02859585958595BA
:103AA000089580915E028770089590915E029770EC
:103AB00081E009F480E00895809182020895909158
:103AC0008202892B809382020895809590918202D0
:103AD0008923809382020895109282020895909122
:103AE0008102892B809381020895809590918102B3
:103AF0008923809381020895109281020895909104
:103B00008002892B80938002089580959091800295
:103B100089238093800208951092800208958091F5
:103B20005F02089508950C94921D0C94931D90913A
:103B30005F02981721F080935F020C94951D089501
:103B400080915F02882329F010925F0280E00C943C
:103B5000951D0895E0911701F0911801809182025E
:103B60008083E0911701F09118019081809181028A
:103B7000892B8083E0911701F09118019081809149
:103B80008002892B808380915F02882381F0E091FD
:103B90001701F09118019081892B80838091170182
:103BA000909118010E94C51E81110E94A01D809154
:103BB0001701909118010C948B120C94921D98E0AF
:103BC000899F90011124262B20935E020E94E41B02
:103BD00080915E028595859585950C94DD1D1092EA
:103BE0005E0280E00C94DD1D20915E0280958223B0
:103BF00080935E02982F977079F430E0482F082E5A
:103C0000000C550B2417350739F08595859585955A
:103C10000E94051C0C94EF1D089580E090E00E9426
:103C2000852C21E08C3E9E4F09F020E0822F0895E4
:103C300082E090E00C94772C682F82E090E00C9466
:103C40008B2C83E090E00C94772C682F83E090E03D
:103C50000C948B2CCF9384E090E00E94772CC82F9B
:103C600081E290E00E94772C2C2F30E0A901582BA4
:103C7000CA01CF910895CF93C92F682F84E090E0B7
:103C80000E948B2C6C2F81E290E0CF910C948B2CB6
:103C9000AB01BC018FE090E00C949D2CAB01BC010A
:103CA00083E190E00C949D2C60E070E0CB010C94DB
:103CB0004E1E60E070E0CB010E94481E0C94541E22
:103CC0006CEE7EEF80E090E00E94A92C60E082E044
:103CD00090E00E948B2C60E083E090E00E948B2CAF
:103CE00010925A0210925B0210925C0210925D02D6
:103CF00060E084E090E00E948B2C60E081E290E044
:103D00000E948B2C60E085E090E00E948B2C60E0AC
:103D100086E090E00E948B2C6FEF87E090E00E949D
:103D20008B2C40E050E0BA0188E090E00E949D2C8E
:103D300060E08DE090E00E948B2C40E050E0BA0102
:103D400088E190E00E949D2C60E087E190E00E9475
:103D50008B2C40E050E0BA018CE190E00E949D2C59
:103D600060E080E290E00E948B2C40E050E0BA01DD
:103D700088E190E00E949D2C0C94591E0C94601ECA
:103D8000682F8EE090E00C948B2CFC013296809191
:103D90002B01882331F08091DB0287FF02C09EE176
:103DA00001C096E080E0915028F021912223D9F3C0
:103DB0008F5FF9CF0895662351F120912B012223C3
:103DC000E9F02091DB0227FF19C0462F4695469562
:103DD00046954E31E0F4677021E030E002C0220FDA
:103DE000331F6A95E2F7FC01E40FF11D828190E038
:103DF0002823392381E0232B69F409C0FC01329682
:103E000008962191621729F0E817F907D1F780E0A9
:103E1000089581E008959C01FC0132969FEF80E0B7
:103E20004191461789F09F3F19F4411101C0982F25
:103E30008F5F8630A9F79F3F39F0F901E90FF11D37
:103E400097FDFA956283089508959C012A5F3F4F7C
:103E5000FC014281461301C012820196821793072A
:103E6000B9F70895262F2695269526952E3168F4C4
:103E7000FC01E20FF11D677021E030E001C0220F6C
:103E80006A95EAF78281282B22830895262F2695AA
:103E9000269526952E3170F4FC01E20FF11D677016
:103EA00021E030E001C0220F6A95EAF72095828177
:103EB00028232283089520912B01222329F0209189
:103EC000DB0227FD0C94321F0C940B1F20912B0159
:103ED000222329F02091DB0227FD0C94461F0C942D
:103EE000251F20912B01FC013296222331F0809175
:103EF000DB0287FF02C08EE101C086E0DF011D9278
:103F00008A95E9F7089508950C94831F0C94831FF4
:103F1000CF930E94861F0E94FB070E94841FC0E06F
:103F20008C2F0E94AA07811104C0CF5FC630C1F751
:103F300001C081E0CF9108950C94831F0C949C1FC5
:103F40000E949E1F8091E102843049F11092840208
:103F500020E488E190E00FB6F894A8958093600083
:103F60000FBE2093600080E00E9493050E949E1F78
:103F700083B7817F846083BF83B7816083BF789478
:103F8000889583B78E7F83BF0FB6F894A8958091EC
:103F90006000886180936000109260000FBE0895F9
:103FA0000C94831F0E948E170E947F120E9493051B
:103FB0000C94D01F1F920F920FB60F9211248F9363
:103FC0009F93AF93BF9380918402811113C080911E
:103FD000D7029091D802A091D902B091DA0241960D
:103FE000A11DB11D8093D7029093D802A093D9024E
:103FF000B093DA02BF91AF919F918F910F900FBE56
:104000000F901F90189582E084BD93E095BD9AEFC4
:1040100097BD80936E0008952FB7F8948091D702D2
:104020009091D802A091D902B091DA022FBF0895E1
:104030009C014FB7F8948091D7029091D802A0913B
:10404000D902B091DA024FBF821B930B0895789486
:104050001F920F920FB60F9211248F939F93AF93DD
:10406000BF938091D7029091D802A091D902B091CC
:10407000DA020196A11DB11D8093D7029093D80258
:10408000A093D902B093DA02BF91AF919F918F9123
:104090000F900FBE0F901F90189581E08093E00065
:1040A00080E28093D8001092C9008FE19EE40197CE
:1040B000F1F700C0000087E090EBDC018093EA029A
:1040C0009093EB02A093EC02B093ED029CE088E1A8
:1040D0000FB6F894A895809360000FBE909360008F
:1040E000FFCFCF92DF92EF92FF920F931F93CF9368
:1040F000C0E0E82EF12C8C2F0E94AA0700E010E00F
:10410000C82ED12CC601002E02C0959587950A9421
:10411000E2F780FD06C00F5F1F4F0630110591F7D3
:104120000AC0602F7C2F80E00E94A005E816F906E7
:1041300091F781E004C0CF5FC630E9F680E0CF910F
:104140001F910F91FF90EF90DF90CF900895CF9344
:10415000C82F8CE20E947120882321F08C2FCF91F0
:104160000C94712080E0CF910895CF930E940D1E92
:10417000811102C00E94BE1EC5E6C15049F00E94D6
:10418000FB078FE39CE90197F1F700C00000F5CF32
:1041900089E20E94A72081112AC18AE20E94A720F9
:1041A00081110E94BE1E85E00E94A72081110E94FD
:1041B0004D200E94181E8093830287E00E94A72052
:1041C0008823A9F18BE10E94A720882351F08091D8
:1041D000830281FB222720F991E0922790FB81F94D
:1041E0000EC08EE00E94A720882361F08091830298
:1041F00082FB222720F991E0922790FB82F980939D
:10420000830215C080E10E94A72090918302882339
:1042100041F093FB222720F981E0822780FB93F96C
:1042200004C0892F809580FB90F990938302809140
:1042300083020E941C1E0E942A1E9093DC0280931F
:10424000DB0280EE0E94A720882341F08091DB02F0
:10425000982F909590FB80F98093DB0289E30E9470
:10426000A720882359F08091DB0281FB222720F9C7
:1042700091E0922790FB81F98093DB0282EE0E940D
:10428000A720882359F08091DB0282FB222720F9A6
:1042900091E0922790FB82F98093DB0286EE0E94E8
:1042A000A720882359F08091DB0283FB222720F985
:1042B00091E0922790FB83F98093DB0283EE0E94CA
:1042C000A720882359F08091DB0284FB222720F964
:1042D00091E0922790FB84F98093DB0285E30E94B2
:1042E000A720882359F08091DB0285FB222720F943
:1042F00091E0922790FB85F98093DB0281E30E9495
:10430000A720882359F08091DB0286FB222720F921
:1043100091E0922790FB86F98093DB0281E10E9475
:10432000A720882359F08091DB0287FB222720F900
:1043300091E0922790FB87F98093DB028091DB026A
:104340009091DC020E943B1E87E20E94A720C82FAA
:104350008EE10E94A7208111C2608FE10E94A720F8
:104360008111C46080E20E94A7208111C86081E2AF
:104370000E94A7208111C06182E20E94A7208111C2
:10438000C06283E20E94A7208111C06484E20E947F
:10439000A720882311F0C06802C0CC2329F08C2FFD
:1043A0000E94251E6C2F03C00E94211E682F70E002
:1043B00080E090E00E94841B609156027091570249
:1043C00080915802909159020E94BC1B8FE00E947C
:1043D000A720882319F081E00E94C01E85E10E9479
:1043E000A720882321F080E0CF910C94C01ECF91AC
:1043F000089580918B0280FF0BC060911E0185E0C3
:10440000689FB001112475956795759567952BC0C8
:1044100081FF09C060911E0185E0689FB0011124F1
:104420007595679520C082FF07C060911E0185E0E9
:10443000689FB001112417C090918A029923D1F08E
:1044400060911D01961788F720911E0185E0289F35
:1044500090011124929FA001939F500D112470E0B0
:10446000CA010E94A12B6038710540F461157105E5
:1044700019F406C065E070E0862F08958FE708956F
:1044800081E0089580918B0280FF08C060911A013D
:1044900070E0759567957595679521C081FF06C099
:1044A00060911A0170E07595679519C082FF04C08C
:1044B00060911A0170E010C090918902992399F0DF
:1044C000609119019617A0F780911A01899FC00188
:1044D000112470E00E94A12B6038710540F4611531
:1044E000710519F406C061E070E0862F08958FE72A
:1044F000089581E00895803F21F40E94F92181957B
:1045000004C0813F29F40E94F92180938F0208950D
:10451000823F21F40E94F921819504C0833F29F450
:104520000E94F92180938E020895893F19F40E9418
:10453000422205C08A3F31F40E9442228195809335
:10454000900208958B3F21F40E944222819504C07D
:104550008C3F29F40E944222809391020895843F67
:1045600021F480918D02816017C0853F21F48091F4
:104570008D02826011C0863F21F480918D0284609B
:104580000BC0873F21F480918D02886005C0883F71
:1045900031F480918D02806180938D0208958D3F6A
:1045A00021F480918B0281600BC08E3F21F48091B9
:1045B0008B02826005C08F3F29F480918B0284605A
:1045C00080938B020895803F39F480918F0287FF9A
:1045D0006AC010928F0267C0813F29F480918F02D8
:1045E0001816BCF360C090918E02823F29F497FFA9
:1045F0005AC010928E0257C0833F19F41916CCF39B
:1046000052C090919002893F31F419160CF04BC0C2
:104610001092900248C08A3F19F497FF44C0F8CF27
:104620008B3F39F48091910287FF3DC01092910237
:104630003AC08C3F29F4809191021816BCF333C024
:10464000843F21F480918D028E7F17C0853F21F435
:1046500080918D028D7F11C0863F21F480918D0263
:104660008B7F0BC0873F21F480918D02877F05C02F
:10467000883F31F480918D028F7E80938D0213C02C
:104680008D3F21F480918B028E7F0BC08E3F21F4F1
:1046900080918B028D7F05C08F3F29F480918B0222
:1046A0008B7F80938B0280918E02811106C0809156
:1046B0008F02811102C010928A02809190028111B2
:1046C00006C080919102811102C010928902089562
:1046D0000E940C2020918E02211104C020918F0293
:1046E000222321F0909388028093870220919002E8
:1046F000211104C020919102222321F0909386027F
:10470000809385028CE892E00C94A512EF92FF92C0
:104710000F931F93CF93DF9300D000D000D0CDB77D
:10472000DEB786E0ECE8F2E0DE01119601900D9232
:104730008A95E1F7E0908E02F0908F02009190024E
:104740001091910210928E0210928F02109290029C
:1047500010929102E11003C0FF2009F45DC0809126
:104760008702909188020E941820AC0190918A02E1
:10477000992339F020911F0130E02417350758F0B4
:104780004BC0209120018AE0289F9001112424171A
:10479000350718F041C09F3F19F09F5F90938A0240
:1047A000EE2061F00E94F9211E1414F09FEF01C069
:1047B00091E0989F902D112490938E02FF2061F03C
:1047C0000E94F9211F1414F09FEF01C091E0989FFF
:1047D000902D112490938F0230918E023323E1F0BB
:1047E00020918F022223C1F045EB3403C001112434
:1047F000992319F090938E0203C081E080938E027A
:1048000035EB2303C0011124992319F090938F02F3
:1048100003C081E080938F02011103C0112309F4CA
:104820005DC080918502909186020E941820AC01A3
:1048300090918902992339F020911B0130E02417CF
:10484000350758F04BC020911C018AE0289F900149
:1048500011242417350718F041C09F3F19F09F5FBE
:1048600090938902002361F00E944222101614F0F6
:104870009FEF01C091E0989F902D1124909390029A
:10488000112361F00E944222111614F09FEF01C023
:1048900091E0989F902D1124909391023091900275
:1048A0003323E1F0209191022223C1F045EB340340
:1048B000C0011124992319F09093900203C081E064
:1048C0008093900235EB2303C0011124992319F042
:1048D0009093910203C081E08093910280918E02B7
:1048E00081110BC080918F02811107C080919002CD
:1048F000811103C08091910281110E946823EB8293
:10490000FC820D831E8386E0FE013196ACE8B2E0A6
:1049100001900D928A95E1F726960FB6F894DEBFC6
:104920000FBECDBFDF91CF911F910F91FF90EF9000
:104930000895ECE8F2E086E0DF011D928A95E9F740
:1049400010928A021092890210928B02089580912F
:10495000B2020895CF93DF9300D01F92CDB7DEB798
:104960009091E102943019F589837B836A8382E018
:104970008093E9008FEF9091E800815095FD06C08B
:1049800095ED9A95F1F700008111F5CF8091E8003F
:1049900085FF0DC040E050E063E070E0CE0101967D
:1049A0000E94D5268091E8008E778093E8000F90D2
:1049B0000F900F90DF91CF910895BC0184E00C948B
:1049C000AA24BC0183E00C94AA2422E02093E900ED
:1049D0002FEF3091E800215035FD06C035ED3A95B6
:1049E000F1F700002111F5CF2091E80025FF0BC061
:1049F00040E050E066E070E00E94D5268091E8003B
:104A00008E778093E8000895CF93DF9320912B0158
:104A1000222339F02091DB0227FF03C060E222E06D
:104A200002C068E021E02093E9002FEF3091E80018
:104A3000215035FD06C035ED3A95F1F70000211102
:104A4000F5CF2091E80025FF1DC0EC0180912B01DE
:104A5000811105C040E050E068E070E003C070E004
:104A600040E050E0CE010E94D5268091E8008E778C
:104A70008093E80080E2FE01A2E9B2E001900D928D
:104A80008A95E1F7DF91CF9108958091E00281113D
:104A900009C00E9466280E94C3288091E2008460B9
:104AA0008093E20008951092E00208950895089519
:104AB0000C94D21F42E061EC81E00E94DF2742E2C9
:104AC00061EC82E00C94DF278091E302833009F4EB
:104AD00060C030F4813071F0823009F499C00895DB
:104AE0008A3009F485C08B3009F46BC0893009F035
:104AF000A7C020C08091E202813A09F0A1C0809154
:104B0000E800877F8093E8008091E6029091E702B9
:104B1000892B21F460E282E992E003C060E080E04A
:104B200090E070E00E9420278091E8008B778093CE
:104B3000E80008958091E202813209F081C08091FD
:104B4000E6029091E702029708F07AC08091E800AF
:104B5000877F8093E8008091E80082FD05C0809106
:104B6000E1028111F8CF6CC02091F3008091F20036
:104B700090E0922B029729F48091F1008B7F813095
:104B800021F48091F1008093B2028091E8008B774C
:104B900053C08091E202813A09F052C08091E6024E
:104BA0009091E702892B09F04BC08091E800877F44
:104BB0008093E8008091E80080FFFCCF80912B017A
:104BC00036C08091E2028132D9F58091E60290915F
:104BD000E702892BA9F58091E800877F8093E800A0
:104BE0000E9414288091E40280932B010C948E176C
:104BF0008091E202813221F58091E800877F8093E5
:104C0000E8000E9414288091E5028093B302089581
:104C10008091E202813AA1F48091E800877F80933D
:104C2000E8008091E80080FFFCCF8091B302809380
:104C3000F1008091E8008E778093E8000C941428AE
:104C4000089584B7877F84BF0FB6F894A8958091A4
:104C50006000886180936000109260000FBE90E059
:104C600080E80FB6F89480936100909361000FBEC6
:104C70000E94F7120E9466280E94C3288091E200D9
:104C800084608093E20078940E94582B0E94FD1269
:104C900081E291E00E947A128091E102853069F40C
:104CA0000E94A01F8091DF028823B1F30E94881F19
:104CB000882391F30E94BF26EFCF0E9407130E9422
:104CC000EB120E94EA12E8CF0C946626292F3327B4
:104CD00023303105C9F060F42130310581F02230F4
:104CE000310509F044C08BE390E022EE37E043C089
:104CF00021323105E1F02232310549F138C082E13B
:104D000090E02DE138E037C099278130910549F0D6
:104D100028F0029761F5EEEBF7E005C0EEEDF7E065
:104D200002C0E2EDF7E0849190E09F0124C061159C
:104D3000710541F061307105D1F489E090E02DE01A
:104D400038E019C089E090E024EF37E014C0611525
:104D5000710541F06130710551F48CEB90E02FE268
:104D600038E009C080E490E02BEE38E004C080E039
:104D700090E020E030E0FA0131832083089580E163
:104D800089BD82E189BD09B400FEFDCF8091D800C4
:104D90008F7D8093D8008091E00082608093E00056
:104DA0008091E00081FDFCCF0895CF92DF92EF92D9
:104DB000FF920F931F93CF93DF93EC018B017A0146
:104DC0000E943328811133C0E114F10439F0F70156
:104DD00080819181081B190BC80FD91FC12CD12CC0
:104DE0000115110519F18091E80085FD16C080912B
:104DF000E8008E778093E800E114F10449F0F701B0
:104E000080819181C80ED91ED182C08285E00FC0F9
:104E10000E943328882321F30AC089918093F100EE
:104E200001501109FFEFCF1ADF0ADACF80E0DF91DE
:104E3000CF911F910F91FF90EF90DF90CF90089549
:104E40002091E8023091E9022617370748F06115F2
:104E5000710539F42091E8002E772093E80001C015
:104E6000B901FC0120E06115710579F18091E10241
:104E70008823F1F18530F1F18091E80083FD3CC099
:104E80008091E80082FD2EC08091E80080FFEBCF8A
:104E90002091F3008091F20090E0922B6115710552
:104EA00051F08830910538F421912093F100615040
:104EB00071090196F3CF21E0089709F020E0809175
:104EC000E8008E778093E800CECF2111CFCF0AC0C3
:104ED0008091E102882361F0853061F08091E800E3
:104EE00083FD0AC08091E80082FFF2CF80E0089540
:104EF00082E0089583E0089581E008952091E8021A
:104F00003091E9022617370748F06115710539F429
:104F10002091E8002E772093E80001C0B901FC0140
:104F200020E06115710591F18091E102882309F477
:104F300040C0853009F43FC08091E80083FD3DC04A
:104F40008091E80082FD2FC08091E80080FFE9CFCA
:104F50002091F3008091F20090E0922B6115710591
:104F600059F08830910540F424912093F100319656
:104F7000615071090196F2CF21E0089709F020E015
:104F80008091E8008E778093E800CBCF2111CCCFC1
:104F90000AC08091E102882361F0853061F0809140
:104FA000E80083FD0AC08091E80082FFF2CF80E034
:104FB000089582E0089583E0089581E00895982F90
:104FC000973068F59093E900981739F07091EC00EC
:104FD0002091ED005091F00003C0242F762F50E077
:104FE00021FD02C09F5FECCF3091EB003E7F3093FC
:104FF000EB003091ED003D7F3093ED003091EB0000
:1050000031603093EB007093EC002093ED005093EF
:10501000F0002091EE0027FDE5CF80E008958F702D
:105020008093E90081E008958091E20287FF11C03A
:105030008091E80082FD05C08091E1028111F8CFE6
:1050400011C08091E8008B770BC08091E10288232A
:1050500049F08091E80080FFF8CF8091E8008E77DA
:105060008093E80008952091E4003091E50095E6F2
:105070004091EC00842F817040FF23C08091E800B4
:1050800080FD1DC08091E102882399F0853099F060
:105090008091EB0085FD11C04091E4005091E50046
:1050A0002417350729F3915011F09A01E1CF84E0DC
:1050B000089582E0089583E0089581E0089580E0F6
:1050C00008954091E80042FFDDCF08950E94D42862
:1050D0000E94DC28E0EEF0E0808181608083E8EDD2
:1050E000F0E080818F77808319BCA7EDB0E08C91D0
:1050F0008E7F8C9380818F7E80831092E002089552
:105100000F931F93CF93DF930E94D4280E94DC2833
:10511000C8EDD0E088818F77888388818068888314
:1051200088818F7D888319BC1092E1021092DD0284
:105130001092DF021092DE0200EE10E0F801808192
:105140008B7F808388818160888342E060E080E09B
:105150000E94DF27E1EEF0E080818E7F8083E2EE27
:10516000F0E0808181608083808188608083F801A5
:1051700080818E7F8083888180618883DF91CF9159
:105180001F910F910895E8EDF0E080818F7E80837C
:10519000E7EDF0E080818160808384E082BF81E080
:1051A0008093E0020C948028E8EDF0E080818E7F0F
:1051B00080831092E20008951092DA001092E100CC
:1051C00008951F920F920FB60F9211242F933F93C1
:1051D0004F935F936F937F938F939F93AF93BF93FF
:1051E000EF93FF938091E10082FF0BC08091E2007A
:1051F00082FF07C08091E1008B7F8093E1000E94D5
:10520000572B8091DA0080FF1FC08091D80080FF6B
:105210001BC08091DA008E7F8093DA008091D900E4
:1052200080FF0DC080E189BD82E189BD09B400FE27
:10523000FDCF81E08093E1020E94452505C019BCA5
:105240001092E1020E9453258091E10080FF19C075
:105250008091E20080FF15C08091E2008E7F8093F4
:10526000E2008091E20080618093E2008091D800AA
:1052700080628093D80019BC85E08093E1020E948F
:1052800057258091E10084FF30C08091E20084FFC7
:105290002CC080E189BD82E189BD09B400FEFDCF4B
:1052A0008091D8008F7D8093D8008091E1008F7E1F
:1052B0008093E1008091E2008F7E8093E2008091F4
:1052C000E20081608093E2008091DD02882311F08A
:1052D00084E007C08091E30087FD02C081E001C047
:1052E00083E08093E1020E9458258091E10083FFD2
:1052F00029C08091E20083FF25C08091E100877F73
:105300008093E10082E08093E1021092DD028091BF
:10531000E1008E7F8093E1008091E2008E7F809398
:10532000E2008091E20080618093E20042E060E070
:1053300080E00E94DF278091F00088608093F00079
:105340000E945625FF91EF91BF91AF919F918F9150
:105350007F916F915F914F913F912F910F900FBE71
:105360000F901F9018951F920F920FB60F92112455
:105370002F933F934F935F936F937F938F939F935D
:10538000AF93BF93CF93DF93EF93FF93C091E90067
:10539000CF708091EC00D82FD17080FDD0E81092B2
:1053A000E9008091F000877F8093F00078940E945C
:1053B000F7291092E9008091F00088608093F00056
:1053C000CD2BCF70C093E900FF91EF91DF91CF918A
:1053D000BF91AF919F918F917F916F915F914F910D
:1053E0003F912F910F900FBE0F901F9018951F9314
:1053F000CF93DF93CDB7DEB7AA970FB6F894DEBF91
:105400000FBECDBFE2EEF2E08091F100819322E089
:10541000EA3EF207C9F70E9464258091E80083FF05
:105420002EC18091E2029091E302492F50E04A3070
:10543000510508F024C1FA01E857FF4F0C94D72B0F
:10544000803821F0823809F01AC108C08091DE024C
:105450009091DF02992389F082600FC08091E6026B
:105460008F70873008F00BC18093E9008091EB00CA
:1054700085FB882780F91092E9009091E800977FDA
:105480009093E8008093F1001092F100D1C0282F92
:105490002D7F09F0F4C0882319F0823061F0EFC04D
:1054A0008091E402813009F0EAC0933009F080E095
:1054B0008093DF022EC08091E40281112AC0809186
:1054C000E6028F702FEF280F263008F0D8C08093A7
:1054D000E9002091EB0020FF1CC0933021F4809163
:1054E000EB00806214C09091EB0090619093EB0010
:1054F00021E030E0A90102C0440F551F8A95E2F770
:105500004093EA001092EA008091EB00886080935B
:10551000EB001092E9008091E800877F8093E8001B
:105520000E941428ACC08111AAC01091E4021F7718
:105530008091E3008078812B8093E3008091E800E4
:10554000877F8093E8000E9414288091E80080FF04
:10555000FCCF8091E30080688093E300111102C0CA
:1055600082E001C083E08093E10289C080588230EC
:1055700008F085C08091E4029091E5028C3D53E0F3
:10558000950779F583E08A838AE289834FB7F89497
:10559000DE01139620E03EE051E2E32FF0E050936D
:1055A0005700E49120FF03C0E295EF703F5FEF707A
:1055B0008E2F90E0EA3010F0C79601C0C0968D9310
:1055C0009D932F5F243149F74FBF8091E800877F7B
:1055D0008093E8006AE270E0CE0101960E942027E5
:1055E00016C06091E6027091E702AE014F5F5F4F17
:1055F0000E946426BC01892B09F441C09091E80007
:10560000977F9093E80089819A810E947E278091FC
:10561000E8008B778093E80032C0803881F5809174
:10562000E800877F8093E8008091DD028093F1009D
:105630008091E8008E7772CF811121C08091E402C1
:105640009091E50299270297D4F48091E800877F32
:105650008093E8008091E4028093DD020E94142888
:105660008091DD02811106C08091E30087FD02C0B8
:1056700081E001C084E08093E1020E945A2580917C
:10568000E80083FF0AC08091E800877F8093E800EC
:105690008091EB0080628093EB00AA960FB6F8949D
:1056A000DEBF0FBECDBFDF91CF911F91089508954A
:1056B000CF938091E1028823A1F0C091E900CF70DF
:1056C0009091EC00892F817090FD80E8C82B10929A
:1056D000E9008091E80083FD0E94F729CF70C09314
:1056E000E900CF910895991B79E004C0991F96179E
:1056F00008F0961B881F7A95C9F78095089587FB57
:10570000082E062687FD819567FD61950E94732B03
:105710000EF4919507FC81950895AA1BBB1B51E1DE
:1057200007C0AA1FBB1FA617B70710F0A61BB70B11
:10573000881F991F5A95A9F780959095BC01CD01B6
:10574000089597FB072E16F4009407D077FD09D033
:105750000E948D2B07FC05D03EF4909581959F4FBC
:105760000895709561957F4F0895A1E21A2EAA1BA6
:10577000BB1BFD010DC0AA1FBB1FEE1FFF1FA21701
:10578000B307E407F50720F0A21BB30BE40BF50BFE
:10579000661F771F881F991F1A9469F76095709587
:1057A000809590959B01AC01BD01CF010895EE0F4E
:1057B000FF1F0590F491E02D09940E94E52B3323FF
:1057C00012F48A1B9B0B0C94F62BA29FB001B39F83
:1057D000C001A39F700D811D1124911DB29F700DFA
:1057E000811D1124911D08950E94E52BB7FF089596
:1057F000821B930B08950E94E52BA59F900DB49FEB
:10580000900DA49F800D911D11240895B7FF0C9455
:10581000FB2B0E94FB2B821B930B08958F929F9270
:10582000AF92BF92CF92DF92EF92FF92CF93DF932E
:10583000EC01688179818A819B81611571058105FF
:10584000910521F464E279ED8BE597E02DE133EFEA
:1058500041E050E00E94BF2C49015A019B01AC017C
:10586000A7EAB1E40E94FB2B6B017C01ACEEB4EF24
:10587000A50194010E94092CDC01CB018C0D9D1D1A
:10588000AE1DBF1DB7FF03C00197A109B0488883B3
:105890009983AA83BB839F77DF91CF91FF90EF908D
:1058A000DF90CF90BF90AF909F908F9008950E940F
:1058B0000E2C089580E091E00E940E2C0895A0E047
:1058C000B0E08093000190930101A0930201B09396
:1058D00003010895FC014150504030F0019006163C
:1058E000D1F73197CF010895882799270895F9991D
:1058F000FECF92BD81BDF89A992780B50895A6E1A3
:10590000B0E044E050E00C94B12CA8E1B0E042E0FB
:1059100050E00C94B12C262FF999FECF92BD81BD99
:10592000F89A019700B4021639F01FBA20BD0FB6DD
:10593000F894FA9AF99A0FBE08950396272F0E94B9
:105940008C2C0E948B2C252F0E948C2C242F0C94A5
:105950008C2C0196272F0E948C2C0C948B2CDC0114
:10596000CB01FC01F999FECF06C0F2BDE1BDF89A6A
:10597000319600B40D9241505040B8F70895052E6D
:1059800097FB1EF400940E94D62C57FD07D00E946E
:10599000B52B07FC03D04EF40C94D62C50954095B3
:1059A000309521953F4F4F4F5F4F089590958095CB
:1059B000709561957F4F8F4F9F4F0895F894FFCF5B
:1059C00001000000010102000600060601191A1B71
:1059D0001C1D1E1F20212260022808641E140A328A
:1059E0001EA7240425E524E124DD2401E200E900CA
:1059F000EA00B500B600B700CD008301CC008A01F3
:105A00009201940121022302240225022602270288
:105A10002A02B300B4006F00700081828391353494
:105A2000F43136F590326697C60001020202020692
:105A300006060909090909090F0F0F0F0F0F1515A0
:105A4000151819191919191919191919232425259E
:105A500025252525E200E900EA00B500B600B700DB
:105A6000CD008301CC008A0192019401210223021E
:105A700024022502260227022A02B300B4006F0086
:065A80007000818283002A
:00000001FF
